{
  "_format": "hh-sol-artifact-1",
  "contractName": "Event",
  "sourceName": "contracts/Event.sol",
  "abi": [
    {
      "inputs": [],
      "stateMutability": "nonpayable",
      "type": "constructor"
    },
    {
      "anonymous": false,
      "inputs": [
        {
          "indexed": true,
          "internalType": "address",
          "name": "owner",
          "type": "address"
        },
        {
          "indexed": true,
          "internalType": "address",
          "name": "approved",
          "type": "address"
        },
        {
          "indexed": true,
          "internalType": "uint256",
          "name": "tokenId",
          "type": "uint256"
        }
      ],
      "name": "Approval",
      "type": "event"
    },
    {
      "anonymous": false,
      "inputs": [
        {
          "indexed": true,
          "internalType": "address",
          "name": "owner",
          "type": "address"
        },
        {
          "indexed": true,
          "internalType": "address",
          "name": "operator",
          "type": "address"
        },
        {
          "indexed": false,
          "internalType": "bool",
          "name": "approved",
          "type": "bool"
        }
      ],
      "name": "ApprovalForAll",
      "type": "event"
    },
    {
      "anonymous": false,
      "inputs": [
        {
          "indexed": true,
          "internalType": "address",
          "name": "previousOwner",
          "type": "address"
        },
        {
          "indexed": true,
          "internalType": "address",
          "name": "newOwner",
          "type": "address"
        }
      ],
      "name": "OwnershipTransferred",
      "type": "event"
    },
    {
      "anonymous": false,
      "inputs": [
        {
          "indexed": true,
          "internalType": "address",
          "name": "from",
          "type": "address"
        },
        {
          "indexed": true,
          "internalType": "address",
          "name": "to",
          "type": "address"
        },
        {
          "indexed": true,
          "internalType": "uint256",
          "name": "tokenId",
          "type": "uint256"
        }
      ],
      "name": "Transfer",
      "type": "event"
    },
    {
      "inputs": [
        {
          "internalType": "address",
          "name": "to",
          "type": "address"
        },
        {
          "internalType": "uint256",
          "name": "tokenId",
          "type": "uint256"
        }
      ],
      "name": "approve",
      "outputs": [],
      "stateMutability": "nonpayable",
      "type": "function"
    },
    {
      "inputs": [
        {
          "internalType": "address",
          "name": "owner",
          "type": "address"
        }
      ],
      "name": "balanceOf",
      "outputs": [
        {
          "internalType": "uint256",
          "name": "",
          "type": "uint256"
        }
      ],
      "stateMutability": "view",
      "type": "function"
    },
    {
      "inputs": [
        {
          "internalType": "uint256",
          "name": "eventId",
          "type": "uint256"
        }
      ],
      "name": "cancelEvent",
      "outputs": [
        {
          "internalType": "bool",
          "name": "",
          "type": "bool"
        }
      ],
      "stateMutability": "nonpayable",
      "type": "function"
    },
    {
      "inputs": [
        {
          "internalType": "uint256",
          "name": "date",
          "type": "uint256"
        },
        {
          "internalType": "address[]",
          "name": "invites",
          "type": "address[]"
        },
        {
          "internalType": "string",
          "name": "description",
          "type": "string"
        },
        {
          "internalType": "address",
          "name": "organizer",
          "type": "address"
        }
      ],
      "name": "createEvent",
      "outputs": [
        {
          "internalType": "uint256",
          "name": "",
          "type": "uint256"
        }
      ],
      "stateMutability": "nonpayable",
      "type": "function"
    },
    {
      "inputs": [
        {
          "internalType": "uint256",
          "name": "",
          "type": "uint256"
        }
      ],
      "name": "eventsData",
      "outputs": [
        {
          "internalType": "uint256",
          "name": "date",
          "type": "uint256"
        },
        {
          "internalType": "string",
          "name": "description",
          "type": "string"
        },
        {
          "internalType": "address",
          "name": "organizer",
          "type": "address"
        }
      ],
      "stateMutability": "view",
      "type": "function"
    },
    {
      "inputs": [
        {
          "internalType": "uint256",
          "name": "tokenId",
          "type": "uint256"
        }
      ],
      "name": "getApproved",
      "outputs": [
        {
          "internalType": "address",
          "name": "",
          "type": "address"
        }
      ],
      "stateMutability": "view",
      "type": "function"
    },
    {
      "inputs": [
        {
          "internalType": "uint256",
          "name": "id",
          "type": "uint256"
        }
      ],
      "name": "getEventData",
      "outputs": [
        {
          "components": [
            {
              "internalType": "uint256",
              "name": "date",
              "type": "uint256"
            },
            {
              "internalType": "address[]",
              "name": "invites",
              "type": "address[]"
            },
            {
              "internalType": "string",
              "name": "description",
              "type": "string"
            },
            {
              "internalType": "address",
              "name": "organizer",
              "type": "address"
            }
          ],
          "internalType": "struct Event.EventData",
          "name": "",
          "type": "tuple"
        }
      ],
      "stateMutability": "view",
      "type": "function"
    },
    {
      "inputs": [
        {
          "internalType": "address",
          "name": "owner",
          "type": "address"
        },
        {
          "internalType": "address",
          "name": "operator",
          "type": "address"
        }
      ],
      "name": "isApprovedForAll",
      "outputs": [
        {
          "internalType": "bool",
          "name": "",
          "type": "bool"
        }
      ],
      "stateMutability": "view",
      "type": "function"
    },
    {
      "inputs": [],
      "name": "name",
      "outputs": [
        {
          "internalType": "string",
          "name": "",
          "type": "string"
        }
      ],
      "stateMutability": "view",
      "type": "function"
    },
    {
      "inputs": [],
      "name": "owner",
      "outputs": [
        {
          "internalType": "address",
          "name": "",
          "type": "address"
        }
      ],
      "stateMutability": "view",
      "type": "function"
    },
    {
      "inputs": [
        {
          "internalType": "uint256",
          "name": "tokenId",
          "type": "uint256"
        }
      ],
      "name": "ownerOf",
      "outputs": [
        {
          "internalType": "address",
          "name": "",
          "type": "address"
        }
      ],
      "stateMutability": "view",
      "type": "function"
    },
    {
      "inputs": [],
      "name": "renounceOwnership",
      "outputs": [],
      "stateMutability": "nonpayable",
      "type": "function"
    },
    {
      "inputs": [
        {
          "internalType": "address",
          "name": "from",
          "type": "address"
        },
        {
          "internalType": "address",
          "name": "to",
          "type": "address"
        },
        {
          "internalType": "uint256",
          "name": "tokenId",
          "type": "uint256"
        }
      ],
      "name": "safeTransferFrom",
      "outputs": [],
      "stateMutability": "nonpayable",
      "type": "function"
    },
    {
      "inputs": [
        {
          "internalType": "address",
          "name": "from",
          "type": "address"
        },
        {
          "internalType": "address",
          "name": "to",
          "type": "address"
        },
        {
          "internalType": "uint256",
          "name": "tokenId",
          "type": "uint256"
        },
        {
          "internalType": "bytes",
          "name": "_data",
          "type": "bytes"
        }
      ],
      "name": "safeTransferFrom",
      "outputs": [],
      "stateMutability": "nonpayable",
      "type": "function"
    },
    {
      "inputs": [
        {
          "internalType": "address",
          "name": "operator",
          "type": "address"
        },
        {
          "internalType": "bool",
          "name": "approved",
          "type": "bool"
        }
      ],
      "name": "setApprovalForAll",
      "outputs": [],
      "stateMutability": "nonpayable",
      "type": "function"
    },
    {
      "inputs": [
        {
          "internalType": "bytes4",
          "name": "interfaceId",
          "type": "bytes4"
        }
      ],
      "name": "supportsInterface",
      "outputs": [
        {
          "internalType": "bool",
          "name": "",
          "type": "bool"
        }
      ],
      "stateMutability": "view",
      "type": "function"
    },
    {
      "inputs": [],
      "name": "symbol",
      "outputs": [
        {
          "internalType": "string",
          "name": "",
          "type": "string"
        }
      ],
      "stateMutability": "view",
      "type": "function"
    },
    {
      "inputs": [
        {
          "internalType": "uint256",
          "name": "tokenId",
          "type": "uint256"
        }
      ],
      "name": "tokenURI",
      "outputs": [
        {
          "internalType": "string",
          "name": "",
          "type": "string"
        }
      ],
      "stateMutability": "view",
      "type": "function"
    },
    {
      "inputs": [
        {
          "internalType": "address",
          "name": "from",
          "type": "address"
        },
        {
          "internalType": "address",
          "name": "to",
          "type": "address"
        },
        {
          "internalType": "uint256",
          "name": "tokenId",
          "type": "uint256"
        }
      ],
      "name": "transferFrom",
      "outputs": [],
      "stateMutability": "nonpayable",
      "type": "function"
    },
    {
      "inputs": [
        {
          "internalType": "address",
          "name": "newOwner",
          "type": "address"
        }
      ],
      "name": "transferOwnership",
      "outputs": [],
      "stateMutability": "nonpayable",
      "type": "function"
    }
  ],
  "bytecode": "0x60806040523480156200001157600080fd5b506040518060400160405280600c81526020017f63616c656e6461722e65746800000000000000000000000000000000000000008152506040518060400160405280600681526020017f43414c4554480000000000000000000000000000000000000000000000000000815250816000908051906020019062000096929190620001a6565b508060019080519060200190620000af929190620001a6565b505050620000d2620000c6620000d860201b60201c565b620000e060201b60201c565b620002bb565b600033905090565b6000600660009054906101000a900473ffffffffffffffffffffffffffffffffffffffff16905081600660006101000a81548173ffffffffffffffffffffffffffffffffffffffff021916908373ffffffffffffffffffffffffffffffffffffffff1602179055508173ffffffffffffffffffffffffffffffffffffffff168173ffffffffffffffffffffffffffffffffffffffff167f8be0079c531659141344cd1fd0a4f28419497f9722a3daafe3b4186f6b6457e060405160405180910390a35050565b828054620001b49062000256565b90600052602060002090601f016020900481019282620001d8576000855562000224565b82601f10620001f357805160ff191683800117855562000224565b8280016001018555821562000224579182015b828111156200022357825182559160200191906001019062000206565b5b50905062000233919062000237565b5090565b5b808211156200025257600081600090555060010162000238565b5090565b600060028204905060018216806200026f57607f821691505b602082108114156200028657620002856200028c565b5b50919050565b7f4e487b7100000000000000000000000000000000000000000000000000000000600052602260045260246000fd5b61379780620002cb6000396000f3fe608060405234801561001057600080fd5b506004361061012c5760003560e01c806370a08231116100ad578063a22cb46511610071578063a22cb4651461036b578063b88d4fde14610387578063c87b56dd146103a3578063e985e9c5146103d3578063f2fde38b146104035761012c565b806370a08231146102c5578063715018a6146102f55780637ac9273b146102ff5780638da5cb5b1461032f57806395d89b411461034d5761012c565b80633f69babd116100f45780633f69babd146101e757806342842e0e146102175780634392bb68146102335780635298aaa6146102635780636352211e146102955761012c565b806301ffc9a71461013157806306fdde0314610161578063081812fc1461017f578063095ea7b3146101af57806323b872dd146101cb575b600080fd5b61014b600480360381019061014691906125ca565b61041f565b6040516101589190612b9a565b60405180910390f35b610169610501565b6040516101769190612bb5565b60405180910390f35b6101996004803603810190610194919061261c565b610593565b6040516101a69190612b33565b60405180910390f35b6101c960048036038101906101c4919061258e565b610618565b005b6101e560048036038101906101e09190612488565b610730565b005b61020160048036038101906101fc919061261c565b610790565b60405161020e9190612b9a565b60405180910390f35b610231600480360381019061022c9190612488565b610885565b005b61024d6004803603810190610248919061261c565b6108a5565b60405161025a9190612dd7565b60405180910390f35b61027d6004803603810190610278919061261c565b610a52565b60405161028c93929190612e14565b60405180910390f35b6102af60048036038101906102aa919061261c565b610b24565b6040516102bc9190612b33565b60405180910390f35b6102df60048036038101906102da9190612423565b610bd6565b6040516102ec9190612df9565b60405180910390f35b6102fd610c8e565b005b61031960048036038101906103149190612645565b610d16565b6040516103269190612df9565b60405180910390f35b610337610e9a565b6040516103449190612b33565b60405180910390f35b610355610ec4565b6040516103629190612bb5565b60405180910390f35b61038560048036038101906103809190612552565b610f56565b005b6103a1600480360381019061039c91906124d7565b610f6c565b005b6103bd60048036038101906103b8919061261c565b610fce565b6040516103ca9190612bb5565b60405180910390f35b6103ed60048036038101906103e8919061244c565b611075565b6040516103fa9190612b9a565b60405180910390f35b61041d60048036038101906104189190612423565b611109565b005b60007f80ac58cd000000000000000000000000000000000000000000000000000000007bffffffffffffffffffffffffffffffffffffffffffffffffffffffff1916827bffffffffffffffffffffffffffffffffffffffffffffffffffffffff191614806104ea57507f5b5e139f000000000000000000000000000000000000000000000000000000007bffffffffffffffffffffffffffffffffffffffffffffffffffffffff1916827bffffffffffffffffffffffffffffffffffffffffffffffffffffffff1916145b806104fa57506104f982611201565b5b9050919050565b60606000805461051090613103565b80601f016020809104026020016040519081016040528092919081815260200182805461053c90613103565b80156105895780601f1061055e57610100808354040283529160200191610589565b820191906000526020600020905b81548152906001019060200180831161056c57829003601f168201915b5050505050905090565b600061059e8261126b565b6105dd576040517f08c379a00000000000000000000000000000000000000000000000000000000081526004016105d490612d37565b60405180910390fd5b6004600083815260200190815260200160002060009054906101000a900473ffffffffffffffffffffffffffffffffffffffff169050919050565b600061062382610b24565b90508073ffffffffffffffffffffffffffffffffffffffff168373ffffffffffffffffffffffffffffffffffffffff161415610694576040517f08c379a000000000000000000000000000000000000000000000000000000000815260040161068b90612d97565b60405180910390fd5b8073ffffffffffffffffffffffffffffffffffffffff166106b36112d7565b73ffffffffffffffffffffffffffffffffffffffff1614806106e257506106e1816106dc6112d7565b611075565b5b610721576040517f08c379a000000000000000000000000000000000000000000000000000000000815260040161071890612cb7565b60405180910390fd5b61072b83836112df565b505050565b61074161073b6112d7565b82611398565b610780576040517f08c379a000000000000000000000000000000000000000000000000000000000815260040161077790612db7565b60405180910390fd5b61078b838383611476565b505050565b600061079a6112d7565b73ffffffffffffffffffffffffffffffffffffffff166107b8610e9a565b73ffffffffffffffffffffffffffffffffffffffff161461080e576040517f08c379a000000000000000000000000000000000000000000000000000000000815260040161080590612d57565b60405180910390fd5b6008600083815260200190815260200160002060008082016000905560018201600061083a9190612088565b60028201600061084a91906120a9565b6003820160006101000a81549073ffffffffffffffffffffffffffffffffffffffff0219169055505061087c826116dd565b60019050919050565b6108a083838360405180602001604052806000815250610f6c565b505050565b6108ad6120e9565b60086000838152602001908152602001600020604051806080016040529081600082015481526020016001820180548060200260200160405190810160405280929190818152602001828054801561095a57602002820191906000526020600020905b8160009054906101000a900473ffffffffffffffffffffffffffffffffffffffff1673ffffffffffffffffffffffffffffffffffffffff1681526020019060010190808311610910575b5050505050815260200160028201805461097390613103565b80601f016020809104026020016040519081016040528092919081815260200182805461099f90613103565b80156109ec5780601f106109c1576101008083540402835291602001916109ec565b820191906000526020600020905b8154815290600101906020018083116109cf57829003601f168201915b505050505081526020016003820160009054906101000a900473ffffffffffffffffffffffffffffffffffffffff1673ffffffffffffffffffffffffffffffffffffffff1673ffffffffffffffffffffffffffffffffffffffff16815250509050919050565b6008602052806000526040600020600091509050806000015490806002018054610a7b90613103565b80601f0160208091040260200160405190810160405280929190818152602001828054610aa790613103565b8015610af45780601f10610ac957610100808354040283529160200191610af4565b820191906000526020600020905b815481529060010190602001808311610ad757829003601f168201915b5050505050908060030160009054906101000a900473ffffffffffffffffffffffffffffffffffffffff16905083565b6000806002600084815260200190815260200160002060009054906101000a900473ffffffffffffffffffffffffffffffffffffffff169050600073ffffffffffffffffffffffffffffffffffffffff168173ffffffffffffffffffffffffffffffffffffffff161415610bcd576040517f08c379a0000000000000000000000000000000000000000000000000000000008152600401610bc490612cf7565b60405180910390fd5b80915050919050565b60008073ffffffffffffffffffffffffffffffffffffffff168273ffffffffffffffffffffffffffffffffffffffff161415610c47576040517f08c379a0000000000000000000000000000000000000000000000000000000008152600401610c3e90612cd7565b60405180910390fd5b600360008373ffffffffffffffffffffffffffffffffffffffff1673ffffffffffffffffffffffffffffffffffffffff168152602001908152602001600020549050919050565b610c966112d7565b73ffffffffffffffffffffffffffffffffffffffff16610cb4610e9a565b73ffffffffffffffffffffffffffffffffffffffff1614610d0a576040517f08c379a0000000000000000000000000000000000000000000000000000000008152600401610d0190612d57565b60405180910390fd5b610d1460006117fa565b565b6000610d206112d7565b73ffffffffffffffffffffffffffffffffffffffff16610d3e610e9a565b73ffffffffffffffffffffffffffffffffffffffff1614610d94576040517f08c379a0000000000000000000000000000000000000000000000000000000008152600401610d8b90612d57565b60405180910390fd5b6000610da060076118c0565b9050610dac33826118ce565b60405180608001604052808781526020018681526020018581526020018473ffffffffffffffffffffffffffffffffffffffff1681525060086000838152602001908152602001600020600082015181600001556020820151816001019080519060200190610e1c929190612127565b506040820151816002019080519060200190610e399291906121b1565b5060608201518160030160006101000a81548173ffffffffffffffffffffffffffffffffffffffff021916908373ffffffffffffffffffffffffffffffffffffffff160217905550905050610e8e60076118ec565b80915050949350505050565b6000600660009054906101000a900473ffffffffffffffffffffffffffffffffffffffff16905090565b606060018054610ed390613103565b80601f0160208091040260200160405190810160405280929190818152602001828054610eff90613103565b8015610f4c5780601f10610f2157610100808354040283529160200191610f4c565b820191906000526020600020905b815481529060010190602001808311610f2f57829003601f168201915b5050505050905090565b610f68610f616112d7565b8383611902565b5050565b610f7d610f776112d7565b83611398565b610fbc576040517f08c379a0000000000000000000000000000000000000000000000000000000008152600401610fb390612db7565b60405180910390fd5b610fc884848484611a6f565b50505050565b6060610fd98261126b565b611018576040517f08c379a000000000000000000000000000000000000000000000000000000000815260040161100f90612d77565b60405180910390fd5b6000611022611acb565b90506000815111611042576040518060200160405280600081525061106d565b8061104c84611ae2565b60405160200161105d929190612b0f565b6040516020818303038152906040525b915050919050565b6000600560008473ffffffffffffffffffffffffffffffffffffffff1673ffffffffffffffffffffffffffffffffffffffff16815260200190815260200160002060008373ffffffffffffffffffffffffffffffffffffffff1673ffffffffffffffffffffffffffffffffffffffff16815260200190815260200160002060009054906101000a900460ff16905092915050565b6111116112d7565b73ffffffffffffffffffffffffffffffffffffffff1661112f610e9a565b73ffffffffffffffffffffffffffffffffffffffff1614611185576040517f08c379a000000000000000000000000000000000000000000000000000000000815260040161117c90612d57565b60405180910390fd5b600073ffffffffffffffffffffffffffffffffffffffff168173ffffffffffffffffffffffffffffffffffffffff1614156111f5576040517f08c379a00000000000000000000000000000000000000000000000000000000081526004016111ec90612bf7565b60405180910390fd5b6111fe816117fa565b50565b60007f01ffc9a7000000000000000000000000000000000000000000000000000000007bffffffffffffffffffffffffffffffffffffffffffffffffffffffff1916827bffffffffffffffffffffffffffffffffffffffffffffffffffffffff1916149050919050565b60008073ffffffffffffffffffffffffffffffffffffffff166002600084815260200190815260200160002060009054906101000a900473ffffffffffffffffffffffffffffffffffffffff1673ffffffffffffffffffffffffffffffffffffffff1614159050919050565b600033905090565b816004600083815260200190815260200160002060006101000a81548173ffffffffffffffffffffffffffffffffffffffff021916908373ffffffffffffffffffffffffffffffffffffffff160217905550808273ffffffffffffffffffffffffffffffffffffffff1661135283610b24565b73ffffffffffffffffffffffffffffffffffffffff167f8c5be1e5ebec7d5bd14f71427d1e84f3dd0314c0f7b2291e5b200ac8c7c3b92560405160405180910390a45050565b60006113a38261126b565b6113e2576040517f08c379a00000000000000000000000000000000000000000000000000000000081526004016113d990612c97565b60405180910390fd5b60006113ed83610b24565b90508073ffffffffffffffffffffffffffffffffffffffff168473ffffffffffffffffffffffffffffffffffffffff16148061145c57508373ffffffffffffffffffffffffffffffffffffffff1661144484610593565b73ffffffffffffffffffffffffffffffffffffffff16145b8061146d575061146c8185611075565b5b91505092915050565b8273ffffffffffffffffffffffffffffffffffffffff1661149682610b24565b73ffffffffffffffffffffffffffffffffffffffff16146114ec576040517f08c379a00000000000000000000000000000000000000000000000000000000081526004016114e390612c17565b60405180910390fd5b600073ffffffffffffffffffffffffffffffffffffffff168273ffffffffffffffffffffffffffffffffffffffff16141561155c576040517f08c379a000000000000000000000000000000000000000000000000000000000815260040161155390612c57565b60405180910390fd5b611567838383611c8f565b6115726000826112df565b6001600360008573ffffffffffffffffffffffffffffffffffffffff1673ffffffffffffffffffffffffffffffffffffffff16815260200190815260200160002060008282546115c29190613019565b925050819055506001600360008473ffffffffffffffffffffffffffffffffffffffff1673ffffffffffffffffffffffffffffffffffffffff16815260200190815260200160002060008282546116199190612f92565b92505081905550816002600083815260200190815260200160002060006101000a81548173ffffffffffffffffffffffffffffffffffffffff021916908373ffffffffffffffffffffffffffffffffffffffff160217905550808273ffffffffffffffffffffffffffffffffffffffff168473ffffffffffffffffffffffffffffffffffffffff167fddf252ad1be2c89b69c2b068fc378daa952ba7f163c4a11628f55a4df523b3ef60405160405180910390a46116d8838383611c94565b505050565b60006116e882610b24565b90506116f681600084611c8f565b6117016000836112df565b6001600360008373ffffffffffffffffffffffffffffffffffffffff1673ffffffffffffffffffffffffffffffffffffffff16815260200190815260200160002060008282546117519190613019565b925050819055506002600083815260200190815260200160002060006101000a81549073ffffffffffffffffffffffffffffffffffffffff021916905581600073ffffffffffffffffffffffffffffffffffffffff168273ffffffffffffffffffffffffffffffffffffffff167fddf252ad1be2c89b69c2b068fc378daa952ba7f163c4a11628f55a4df523b3ef60405160405180910390a46117f681600084611c94565b5050565b6000600660009054906101000a900473ffffffffffffffffffffffffffffffffffffffff16905081600660006101000a81548173ffffffffffffffffffffffffffffffffffffffff021916908373ffffffffffffffffffffffffffffffffffffffff1602179055508173ffffffffffffffffffffffffffffffffffffffff168173ffffffffffffffffffffffffffffffffffffffff167f8be0079c531659141344cd1fd0a4f28419497f9722a3daafe3b4186f6b6457e060405160405180910390a35050565b600081600001549050919050565b6118e8828260405180602001604052806000815250611c99565b5050565b6001816000016000828254019250508190555050565b8173ffffffffffffffffffffffffffffffffffffffff168373ffffffffffffffffffffffffffffffffffffffff161415611971576040517f08c379a000000000000000000000000000000000000000000000000000000000815260040161196890612c77565b60405180910390fd5b80600560008573ffffffffffffffffffffffffffffffffffffffff1673ffffffffffffffffffffffffffffffffffffffff16815260200190815260200160002060008473ffffffffffffffffffffffffffffffffffffffff1673ffffffffffffffffffffffffffffffffffffffff16815260200190815260200160002060006101000a81548160ff0219169083151502179055508173ffffffffffffffffffffffffffffffffffffffff168373ffffffffffffffffffffffffffffffffffffffff167f17307eab39ab6107e8899845ad3d59bd9653f200f220920489ca2b5937696c3183604051611a629190612b9a565b60405180910390a3505050565b611a7a848484611476565b611a8684848484611cf4565b611ac5576040517f08c379a0000000000000000000000000000000000000000000000000000000008152600401611abc90612bd7565b60405180910390fd5b50505050565b606060405180602001604052806000815250905090565b60606000821415611b2a576040518060400160405280600181526020017f30000000000000000000000000000000000000000000000000000000000000008152509050611c8a565b600082905060005b60008214611b5c578080611b4590613166565b915050600a82611b559190612fe8565b9150611b32565b60008167ffffffffffffffff811115611b9e577f4e487b7100000000000000000000000000000000000000000000000000000000600052604160045260246000fd5b6040519080825280601f01601f191660200182016040528015611bd05781602001600182028036833780820191505090505b5090505b60008514611c8357600182611be99190613019565b9150600a85611bf891906131af565b6030611c049190612f92565b60f81b818381518110611c40577f4e487b7100000000000000000000000000000000000000000000000000000000600052603260045260246000fd5b60200101907effffffffffffffffffffffffffffffffffffffffffffffffffffffffffffff1916908160001a905350600a85611c7c9190612fe8565b9450611bd4565b8093505050505b919050565b505050565b505050565b611ca38383611e8b565b611cb06000848484611cf4565b611cef576040517f08c379a0000000000000000000000000000000000000000000000000000000008152600401611ce690612bd7565b60405180910390fd5b505050565b6000611d158473ffffffffffffffffffffffffffffffffffffffff16612065565b15611e7e578373ffffffffffffffffffffffffffffffffffffffff1663150b7a02611d3e6112d7565b8786866040518563ffffffff1660e01b8152600401611d609493929190612b4e565b602060405180830381600087803b158015611d7a57600080fd5b505af1925050508015611dab57506040513d601f19601f82011682018060405250810190611da891906125f3565b60015b611e2e573d8060008114611ddb576040519150601f19603f3d011682016040523d82523d6000602084013e611de0565b606091505b50600081511415611e26576040517f08c379a0000000000000000000000000000000000000000000000000000000008152600401611e1d90612bd7565b60405180910390fd5b805181602001fd5b63150b7a0260e01b7bffffffffffffffffffffffffffffffffffffffffffffffffffffffff1916817bffffffffffffffffffffffffffffffffffffffffffffffffffffffff191614915050611e83565b600190505b949350505050565b600073ffffffffffffffffffffffffffffffffffffffff168273ffffffffffffffffffffffffffffffffffffffff161415611efb576040517f08c379a0000000000000000000000000000000000000000000000000000000008152600401611ef290612d17565b60405180910390fd5b611f048161126b565b15611f44576040517f08c379a0000000000000000000000000000000000000000000000000000000008152600401611f3b90612c37565b60405180910390fd5b611f5060008383611c8f565b6001600360008473ffffffffffffffffffffffffffffffffffffffff1673ffffffffffffffffffffffffffffffffffffffff1681526020019081526020016000206000828254611fa09190612f92565b92505081905550816002600083815260200190815260200160002060006101000a81548173ffffffffffffffffffffffffffffffffffffffff021916908373ffffffffffffffffffffffffffffffffffffffff160217905550808273ffffffffffffffffffffffffffffffffffffffff16600073ffffffffffffffffffffffffffffffffffffffff167fddf252ad1be2c89b69c2b068fc378daa952ba7f163c4a11628f55a4df523b3ef60405160405180910390a461206160008383611c94565b5050565b6000808273ffffffffffffffffffffffffffffffffffffffff163b119050919050565b50805460008255906000526020600020908101906120a69190612237565b50565b5080546120b590613103565b6000825580601f106120c757506120e6565b601f0160209004906000526020600020908101906120e59190612237565b5b50565b6040518060800160405280600081526020016060815260200160608152602001600073ffffffffffffffffffffffffffffffffffffffff1681525090565b8280548282559060005260206000209081019282156121a0579160200282015b8281111561219f5782518260006101000a81548173ffffffffffffffffffffffffffffffffffffffff021916908373ffffffffffffffffffffffffffffffffffffffff16021790555091602001919060010190612147565b5b5090506121ad9190612237565b5090565b8280546121bd90613103565b90600052602060002090601f0160209004810192826121df5760008555612226565b82601f106121f857805160ff1916838001178555612226565b82800160010185558215612226579182015b8281111561222557825182559160200191906001019061220a565b5b5090506122339190612237565b5090565b5b80821115612250576000816000905550600101612238565b5090565b600061226761226284612e77565b612e52565b9050808382526020820190508285602086028201111561228657600080fd5b60005b858110156122b6578161229c888261233c565b845260208401935060208301925050600181019050612289565b5050509392505050565b60006122d36122ce84612ea3565b612e52565b9050828152602081018484840111156122eb57600080fd5b6122f68482856130c1565b509392505050565b600061231161230c84612ed4565b612e52565b90508281526020810184848401111561232957600080fd5b6123348482856130c1565b509392505050565b60008135905061234b81613705565b92915050565b600082601f83011261236257600080fd5b8135612372848260208601612254565b91505092915050565b60008135905061238a8161371c565b92915050565b60008135905061239f81613733565b92915050565b6000815190506123b481613733565b92915050565b600082601f8301126123cb57600080fd5b81356123db8482602086016122c0565b91505092915050565b600082601f8301126123f557600080fd5b81356124058482602086016122fe565b91505092915050565b60008135905061241d8161374a565b92915050565b60006020828403121561243557600080fd5b60006124438482850161233c565b91505092915050565b6000806040838503121561245f57600080fd5b600061246d8582860161233c565b925050602061247e8582860161233c565b9150509250929050565b60008060006060848603121561249d57600080fd5b60006124ab8682870161233c565b93505060206124bc8682870161233c565b92505060406124cd8682870161240e565b9150509250925092565b600080600080608085870312156124ed57600080fd5b60006124fb8782880161233c565b945050602061250c8782880161233c565b935050604061251d8782880161240e565b925050606085013567ffffffffffffffff81111561253a57600080fd5b612546878288016123ba565b91505092959194509250565b6000806040838503121561256557600080fd5b60006125738582860161233c565b92505060206125848582860161237b565b9150509250929050565b600080604083850312156125a157600080fd5b60006125af8582860161233c565b92505060206125c08582860161240e565b9150509250929050565b6000602082840312156125dc57600080fd5b60006125ea84828501612390565b91505092915050565b60006020828403121561260557600080fd5b6000612613848285016123a5565b91505092915050565b60006020828403121561262e57600080fd5b600061263c8482850161240e565b91505092915050565b6000806000806080858703121561265b57600080fd5b60006126698782880161240e565b945050602085013567ffffffffffffffff81111561268657600080fd5b61269287828801612351565b935050604085013567ffffffffffffffff8111156126af57600080fd5b6126bb878288016123e4565b92505060606126cc8782880161233c565b91505092959194509250565b60006126e483836126f0565b60208301905092915050565b6126f98161304d565b82525050565b6127088161304d565b82525050565b600061271982612f15565b6127238185612f43565b935061272e83612f05565b8060005b8381101561275f57815161274688826126d8565b975061275183612f36565b925050600181019050612732565b5085935050505092915050565b6127758161305f565b82525050565b600061278682612f20565b6127908185612f54565b93506127a08185602086016130d0565b6127a98161329c565b840191505092915050565b60006127bf82612f2b565b6127c98185612f65565b93506127d98185602086016130d0565b6127e28161329c565b840191505092915050565b60006127f882612f2b565b6128028185612f76565b93506128128185602086016130d0565b61281b8161329c565b840191505092915050565b600061283182612f2b565b61283b8185612f87565b935061284b8185602086016130d0565b80840191505092915050565b6000612864603283612f76565b915061286f826132ad565b604082019050919050565b6000612887602683612f76565b9150612892826132fc565b604082019050919050565b60006128aa602583612f76565b91506128b58261334b565b604082019050919050565b60006128cd601c83612f76565b91506128d88261339a565b602082019050919050565b60006128f0602483612f76565b91506128fb826133c3565b604082019050919050565b6000612913601983612f76565b915061291e82613412565b602082019050919050565b6000612936602c83612f76565b91506129418261343b565b604082019050919050565b6000612959603883612f76565b91506129648261348a565b604082019050919050565b600061297c602a83612f76565b9150612987826134d9565b604082019050919050565b600061299f602983612f76565b91506129aa82613528565b604082019050919050565b60006129c2602083612f76565b91506129cd82613577565b602082019050919050565b60006129e5602c83612f76565b91506129f0826135a0565b604082019050919050565b6000612a08602083612f76565b9150612a13826135ef565b602082019050919050565b6000612a2b602f83612f76565b9150612a3682613618565b604082019050919050565b6000612a4e602183612f76565b9150612a5982613667565b604082019050919050565b6000612a71603183612f76565b9150612a7c826136b6565b604082019050919050565b6000608083016000830151612a9f6000860182612af1565b5060208301518482036020860152612ab7828261270e565b91505060408301518482036040860152612ad182826127b4565b9150506060830151612ae660608601826126f0565b508091505092915050565b612afa816130b7565b82525050565b612b09816130b7565b82525050565b6000612b1b8285612826565b9150612b278284612826565b91508190509392505050565b6000602082019050612b4860008301846126ff565b92915050565b6000608082019050612b6360008301876126ff565b612b7060208301866126ff565b612b7d6040830185612b00565b8181036060830152612b8f818461277b565b905095945050505050565b6000602082019050612baf600083018461276c565b92915050565b60006020820190508181036000830152612bcf81846127ed565b905092915050565b60006020820190508181036000830152612bf081612857565b9050919050565b60006020820190508181036000830152612c108161287a565b9050919050565b60006020820190508181036000830152612c308161289d565b9050919050565b60006020820190508181036000830152612c50816128c0565b9050919050565b60006020820190508181036000830152612c70816128e3565b9050919050565b60006020820190508181036000830152612c9081612906565b9050919050565b60006020820190508181036000830152612cb081612929565b9050919050565b60006020820190508181036000830152612cd08161294c565b9050919050565b60006020820190508181036000830152612cf08161296f565b9050919050565b60006020820190508181036000830152612d1081612992565b9050919050565b60006020820190508181036000830152612d30816129b5565b9050919050565b60006020820190508181036000830152612d50816129d8565b9050919050565b60006020820190508181036000830152612d70816129fb565b9050919050565b60006020820190508181036000830152612d9081612a1e565b9050919050565b60006020820190508181036000830152612db081612a41565b9050919050565b60006020820190508181036000830152612dd081612a64565b9050919050565b60006020820190508181036000830152612df18184612a87565b905092915050565b6000602082019050612e0e6000830184612b00565b92915050565b6000606082019050612e296000830186612b00565b8181036020830152612e3b81856127ed565b9050612e4a60408301846126ff565b949350505050565b6000612e5c612e6d565b9050612e688282613135565b919050565b6000604051905090565b600067ffffffffffffffff821115612e9257612e9161326d565b5b602082029050602081019050919050565b600067ffffffffffffffff821115612ebe57612ebd61326d565b5b612ec78261329c565b9050602081019050919050565b600067ffffffffffffffff821115612eef57612eee61326d565b5b612ef88261329c565b9050602081019050919050565b6000819050602082019050919050565b600081519050919050565b600081519050919050565b600081519050919050565b6000602082019050919050565b600082825260208201905092915050565b600082825260208201905092915050565b600082825260208201905092915050565b600082825260208201905092915050565b600081905092915050565b6000612f9d826130b7565b9150612fa8836130b7565b9250827fffffffffffffffffffffffffffffffffffffffffffffffffffffffffffffffff03821115612fdd57612fdc6131e0565b5b828201905092915050565b6000612ff3826130b7565b9150612ffe836130b7565b92508261300e5761300d61320f565b5b828204905092915050565b6000613024826130b7565b915061302f836130b7565b925082821015613042576130416131e0565b5b828203905092915050565b600061305882613097565b9050919050565b60008115159050919050565b60007fffffffff0000000000000000000000000000000000000000000000000000000082169050919050565b600073ffffffffffffffffffffffffffffffffffffffff82169050919050565b6000819050919050565b82818337600083830152505050565b60005b838110156130ee5780820151818401526020810190506130d3565b838111156130fd576000848401525b50505050565b6000600282049050600182168061311b57607f821691505b6020821081141561312f5761312e61323e565b5b50919050565b61313e8261329c565b810181811067ffffffffffffffff8211171561315d5761315c61326d565b5b80604052505050565b6000613171826130b7565b91507fffffffffffffffffffffffffffffffffffffffffffffffffffffffffffffffff8214156131a4576131a36131e0565b5b600182019050919050565b60006131ba826130b7565b91506131c5836130b7565b9250826131d5576131d461320f565b5b828206905092915050565b7f4e487b7100000000000000000000000000000000000000000000000000000000600052601160045260246000fd5b7f4e487b7100000000000000000000000000000000000000000000000000000000600052601260045260246000fd5b7f4e487b7100000000000000000000000000000000000000000000000000000000600052602260045260246000fd5b7f4e487b7100000000000000000000000000000000000000000000000000000000600052604160045260246000fd5b6000601f19601f8301169050919050565b7f4552433732313a207472616e7366657220746f206e6f6e20455243373231526560008201527f63656976657220696d706c656d656e7465720000000000000000000000000000602082015250565b7f4f776e61626c653a206e6577206f776e657220697320746865207a65726f206160008201527f6464726573730000000000000000000000000000000000000000000000000000602082015250565b7f4552433732313a207472616e736665722066726f6d20696e636f72726563742060008201527f6f776e6572000000000000000000000000000000000000000000000000000000602082015250565b7f4552433732313a20746f6b656e20616c7265616479206d696e74656400000000600082015250565b7f4552433732313a207472616e7366657220746f20746865207a65726f2061646460008201527f7265737300000000000000000000000000000000000000000000000000000000602082015250565b7f4552433732313a20617070726f766520746f2063616c6c657200000000000000600082015250565b7f4552433732313a206f70657261746f7220717565727920666f72206e6f6e657860008201527f697374656e7420746f6b656e0000000000000000000000000000000000000000602082015250565b7f4552433732313a20617070726f76652063616c6c6572206973206e6f74206f7760008201527f6e6572206e6f7220617070726f76656420666f7220616c6c0000000000000000602082015250565b7f4552433732313a2062616c616e636520717565727920666f7220746865207a6560008201527f726f206164647265737300000000000000000000000000000000000000000000602082015250565b7f4552433732313a206f776e657220717565727920666f72206e6f6e657869737460008201527f656e7420746f6b656e0000000000000000000000000000000000000000000000602082015250565b7f4552433732313a206d696e7420746f20746865207a65726f2061646472657373600082015250565b7f4552433732313a20617070726f76656420717565727920666f72206e6f6e657860008201527f697374656e7420746f6b656e0000000000000000000000000000000000000000602082015250565b7f4f776e61626c653a2063616c6c6572206973206e6f7420746865206f776e6572600082015250565b7f4552433732314d657461646174613a2055524920717565727920666f72206e6f60008201527f6e6578697374656e7420746f6b656e0000000000000000000000000000000000602082015250565b7f4552433732313a20617070726f76616c20746f2063757272656e74206f776e6560008201527f7200000000000000000000000000000000000000000000000000000000000000602082015250565b7f4552433732313a207472616e736665722063616c6c6572206973206e6f74206f60008201527f776e6572206e6f7220617070726f766564000000000000000000000000000000602082015250565b61370e8161304d565b811461371957600080fd5b50565b6137258161305f565b811461373057600080fd5b50565b61373c8161306b565b811461374757600080fd5b50565b613753816130b7565b811461375e57600080fd5b5056fea2646970667358221220cc50c8d90a5b7acdbc3feaa6f1580fa3fc576820f60b8b83e385b01702375c0564736f6c63430008040033",
  "linkReferences": {},
  "deployedLinkReferences": {}
}