{
  "_format": "hh-sol-artifact-1",
  "contractName": "Event",
  "sourceName": "contracts/Event.sol",
  "abi": [
    {
      "inputs": [],
      "stateMutability": "nonpayable",
      "type": "constructor"
    },
    {
      "anonymous": false,
      "inputs": [
        {
          "indexed": true,
          "internalType": "address",
          "name": "owner",
          "type": "address"
        },
        {
          "indexed": true,
          "internalType": "address",
          "name": "approved",
          "type": "address"
        },
        {
          "indexed": true,
          "internalType": "uint256",
          "name": "tokenId",
          "type": "uint256"
        }
      ],
      "name": "Approval",
      "type": "event"
    },
    {
      "anonymous": false,
      "inputs": [
        {
          "indexed": true,
          "internalType": "address",
          "name": "owner",
          "type": "address"
        },
        {
          "indexed": true,
          "internalType": "address",
          "name": "operator",
          "type": "address"
        },
        {
          "indexed": false,
          "internalType": "bool",
          "name": "approved",
          "type": "bool"
        }
      ],
      "name": "ApprovalForAll",
      "type": "event"
    },
    {
      "anonymous": false,
      "inputs": [
        {
          "indexed": true,
          "internalType": "address",
          "name": "previousOwner",
          "type": "address"
        },
        {
          "indexed": true,
          "internalType": "address",
          "name": "newOwner",
          "type": "address"
        }
      ],
      "name": "OwnershipTransferred",
      "type": "event"
    },
    {
      "anonymous": false,
      "inputs": [
        {
          "indexed": true,
          "internalType": "address",
          "name": "from",
          "type": "address"
        },
        {
          "indexed": true,
          "internalType": "address",
          "name": "to",
          "type": "address"
        },
        {
          "indexed": true,
          "internalType": "uint256",
          "name": "tokenId",
          "type": "uint256"
        }
      ],
      "name": "Transfer",
      "type": "event"
    },
    {
      "inputs": [
        {
          "internalType": "address",
          "name": "to",
          "type": "address"
        },
        {
          "internalType": "uint256",
          "name": "tokenId",
          "type": "uint256"
        }
      ],
      "name": "approve",
      "outputs": [],
      "stateMutability": "nonpayable",
      "type": "function"
    },
    {
      "inputs": [
        {
          "internalType": "address",
          "name": "owner",
          "type": "address"
        }
      ],
      "name": "balanceOf",
      "outputs": [
        {
          "internalType": "uint256",
          "name": "",
          "type": "uint256"
        }
      ],
      "stateMutability": "view",
      "type": "function"
    },
    {
      "inputs": [
        {
          "internalType": "uint256",
          "name": "eventId",
          "type": "uint256"
        }
      ],
      "name": "cancelEvent",
      "outputs": [
        {
          "internalType": "bool",
          "name": "",
          "type": "bool"
        }
      ],
      "stateMutability": "nonpayable",
      "type": "function"
    },
    {
      "inputs": [
        {
          "internalType": "uint256",
          "name": "startDate",
          "type": "uint256"
        },
        {
          "internalType": "uint256",
          "name": "endDate",
          "type": "uint256"
        },
        {
          "internalType": "address[]",
          "name": "invites",
          "type": "address[]"
        },
        {
          "internalType": "string",
          "name": "description",
          "type": "string"
        },
        {
          "internalType": "address",
          "name": "organizer",
          "type": "address"
        }
      ],
      "name": "createEvent",
      "outputs": [
        {
          "internalType": "uint256",
          "name": "",
          "type": "uint256"
        }
      ],
      "stateMutability": "nonpayable",
      "type": "function"
    },
    {
      "inputs": [
        {
          "internalType": "uint256",
          "name": "",
          "type": "uint256"
        }
      ],
      "name": "eventsData",
      "outputs": [
        {
          "internalType": "uint256",
          "name": "startDate",
          "type": "uint256"
        },
        {
          "internalType": "uint256",
          "name": "endDate",
          "type": "uint256"
        },
        {
          "internalType": "string",
          "name": "description",
          "type": "string"
        },
        {
          "internalType": "address",
          "name": "organizer",
          "type": "address"
        }
      ],
      "stateMutability": "view",
      "type": "function"
    },
    {
      "inputs": [],
      "name": "getAllEvents",
      "outputs": [
        {
          "components": [
            {
              "internalType": "uint256",
              "name": "startDate",
              "type": "uint256"
            },
            {
              "internalType": "uint256",
              "name": "endDate",
              "type": "uint256"
            },
            {
              "internalType": "address[]",
              "name": "invites",
              "type": "address[]"
            },
            {
              "internalType": "string",
              "name": "description",
              "type": "string"
            },
            {
              "internalType": "address",
              "name": "organizer",
              "type": "address"
            }
          ],
          "internalType": "struct Event.EventData[]",
          "name": "",
          "type": "tuple[]"
        }
      ],
      "stateMutability": "view",
      "type": "function"
    },
    {
      "inputs": [
        {
          "internalType": "uint256",
          "name": "tokenId",
          "type": "uint256"
        }
      ],
      "name": "getApproved",
      "outputs": [
        {
          "internalType": "address",
          "name": "",
          "type": "address"
        }
      ],
      "stateMutability": "view",
      "type": "function"
    },
    {
      "inputs": [
        {
          "internalType": "uint256",
          "name": "id",
          "type": "uint256"
        }
      ],
      "name": "getEventData",
      "outputs": [
        {
          "components": [
            {
              "internalType": "uint256",
              "name": "startDate",
              "type": "uint256"
            },
            {
              "internalType": "uint256",
              "name": "endDate",
              "type": "uint256"
            },
            {
              "internalType": "address[]",
              "name": "invites",
              "type": "address[]"
            },
            {
              "internalType": "string",
              "name": "description",
              "type": "string"
            },
            {
              "internalType": "address",
              "name": "organizer",
              "type": "address"
            }
          ],
          "internalType": "struct Event.EventData",
          "name": "",
          "type": "tuple"
        }
      ],
      "stateMutability": "view",
      "type": "function"
    },
    {
      "inputs": [
        {
          "internalType": "address",
          "name": "owner",
          "type": "address"
        },
        {
          "internalType": "address",
          "name": "operator",
          "type": "address"
        }
      ],
      "name": "isApprovedForAll",
      "outputs": [
        {
          "internalType": "bool",
          "name": "",
          "type": "bool"
        }
      ],
      "stateMutability": "view",
      "type": "function"
    },
    {
      "inputs": [],
      "name": "name",
      "outputs": [
        {
          "internalType": "string",
          "name": "",
          "type": "string"
        }
      ],
      "stateMutability": "view",
      "type": "function"
    },
    {
      "inputs": [],
      "name": "owner",
      "outputs": [
        {
          "internalType": "address",
          "name": "",
          "type": "address"
        }
      ],
      "stateMutability": "view",
      "type": "function"
    },
    {
      "inputs": [
        {
          "internalType": "uint256",
          "name": "tokenId",
          "type": "uint256"
        }
      ],
      "name": "ownerOf",
      "outputs": [
        {
          "internalType": "address",
          "name": "",
          "type": "address"
        }
      ],
      "stateMutability": "view",
      "type": "function"
    },
    {
      "inputs": [],
      "name": "renounceOwnership",
      "outputs": [],
      "stateMutability": "nonpayable",
      "type": "function"
    },
    {
      "inputs": [
        {
          "internalType": "address",
          "name": "from",
          "type": "address"
        },
        {
          "internalType": "address",
          "name": "to",
          "type": "address"
        },
        {
          "internalType": "uint256",
          "name": "tokenId",
          "type": "uint256"
        }
      ],
      "name": "safeTransferFrom",
      "outputs": [],
      "stateMutability": "nonpayable",
      "type": "function"
    },
    {
      "inputs": [
        {
          "internalType": "address",
          "name": "from",
          "type": "address"
        },
        {
          "internalType": "address",
          "name": "to",
          "type": "address"
        },
        {
          "internalType": "uint256",
          "name": "tokenId",
          "type": "uint256"
        },
        {
          "internalType": "bytes",
          "name": "_data",
          "type": "bytes"
        }
      ],
      "name": "safeTransferFrom",
      "outputs": [],
      "stateMutability": "nonpayable",
      "type": "function"
    },
    {
      "inputs": [
        {
          "internalType": "address",
          "name": "operator",
          "type": "address"
        },
        {
          "internalType": "bool",
          "name": "approved",
          "type": "bool"
        }
      ],
      "name": "setApprovalForAll",
      "outputs": [],
      "stateMutability": "nonpayable",
      "type": "function"
    },
    {
      "inputs": [
        {
          "internalType": "bytes4",
          "name": "interfaceId",
          "type": "bytes4"
        }
      ],
      "name": "supportsInterface",
      "outputs": [
        {
          "internalType": "bool",
          "name": "",
          "type": "bool"
        }
      ],
      "stateMutability": "view",
      "type": "function"
    },
    {
      "inputs": [],
      "name": "symbol",
      "outputs": [
        {
          "internalType": "string",
          "name": "",
          "type": "string"
        }
      ],
      "stateMutability": "view",
      "type": "function"
    },
    {
      "inputs": [
        {
          "internalType": "uint256",
          "name": "tokenId",
          "type": "uint256"
        }
      ],
      "name": "tokenURI",
      "outputs": [
        {
          "internalType": "string",
          "name": "",
          "type": "string"
        }
      ],
      "stateMutability": "view",
      "type": "function"
    },
    {
      "inputs": [
        {
          "internalType": "address",
          "name": "from",
          "type": "address"
        },
        {
          "internalType": "address",
          "name": "to",
          "type": "address"
        },
        {
          "internalType": "uint256",
          "name": "tokenId",
          "type": "uint256"
        }
      ],
      "name": "transferFrom",
      "outputs": [],
      "stateMutability": "nonpayable",
      "type": "function"
    },
    {
      "inputs": [
        {
          "internalType": "address",
          "name": "newOwner",
          "type": "address"
        }
      ],
      "name": "transferOwnership",
      "outputs": [],
      "stateMutability": "nonpayable",
      "type": "function"
    }
  ],
  "bytecode": "0x60806040523480156200001157600080fd5b506040518060400160405280600c81526020017f63616c656e6461722e65746800000000000000000000000000000000000000008152506040518060400160405280600681526020017f43414c4554480000000000000000000000000000000000000000000000000000815250816000908051906020019062000096929190620001a6565b508060019080519060200190620000af929190620001a6565b505050620000d2620000c6620000d860201b60201c565b620000e060201b60201c565b620002bb565b600033905090565b6000600660009054906101000a900473ffffffffffffffffffffffffffffffffffffffff16905081600660006101000a81548173ffffffffffffffffffffffffffffffffffffffff021916908373ffffffffffffffffffffffffffffffffffffffff1602179055508173ffffffffffffffffffffffffffffffffffffffff168173ffffffffffffffffffffffffffffffffffffffff167f8be0079c531659141344cd1fd0a4f28419497f9722a3daafe3b4186f6b6457e060405160405180910390a35050565b828054620001b49062000256565b90600052602060002090601f016020900481019282620001d8576000855562000224565b82601f10620001f357805160ff191683800117855562000224565b8280016001018555821562000224579182015b828111156200022357825182559160200191906001019062000206565b5b50905062000233919062000237565b5090565b5b808211156200025257600081600090555060010162000238565b5090565b600060028204905060018216806200026f57607f821691505b602082108114156200028657620002856200028c565b5b50919050565b7f4e487b7100000000000000000000000000000000000000000000000000000000600052602260045260246000fd5b613c2b80620002cb6000396000f3fe608060405234801561001057600080fd5b50600436106101375760003560e01c806370a08231116100b8578063a22cb4651161007c578063a22cb46514610377578063b88d4fde14610393578063c27a500d146103af578063c87b56dd146103cd578063e985e9c5146103fd578063f2fde38b1461042d57610137565b806370a08231146102d1578063715018a61461030157806380df86ed1461030b5780638da5cb5b1461033b57806395d89b411461035957610137565b80633f69babd116100ff5780633f69babd146101f257806342842e0e146102225780634392bb681461023e5780635298aaa61461026e5780636352211e146102a157610137565b806301ffc9a71461013c57806306fdde031461016c578063081812fc1461018a578063095ea7b3146101ba57806323b872dd146101d6575b600080fd5b610156600480360381019061015191906128c8565b610449565b6040516101639190612fe7565b60405180910390f35b61017461052b565b6040516101819190613002565b60405180910390f35b6101a4600480360381019061019f919061291a565b6105bd565b6040516101b19190612f5e565b60405180910390f35b6101d460048036038101906101cf919061288c565b610642565b005b6101f060048036038101906101eb9190612786565b61075a565b005b61020c6004803603810190610207919061291a565b6107ba565b6040516102199190612fe7565b60405180910390f35b61023c60048036038101906102379190612786565b6108b7565b005b6102586004803603810190610253919061291a565b6108d7565b6040516102659190613224565b60405180910390f35b6102886004803603810190610283919061291a565b610a8e565b6040516102989493929190613261565b60405180910390f35b6102bb60048036038101906102b6919061291a565b610b66565b6040516102c89190612f5e565b60405180910390f35b6102eb60048036038101906102e69190612721565b610c18565b6040516102f89190613246565b60405180910390f35b610309610cd0565b005b61032560048036038101906103209190612943565b610d58565b6040516103329190613246565b60405180910390f35b610343610eed565b6040516103509190612f5e565b60405180910390f35b610361610f17565b60405161036e9190613002565b60405180910390f35b610391600480360381019061038c9190612850565b610fa9565b005b6103ad60048036038101906103a891906127d5565b610fbf565b005b6103b7611021565b6040516103c49190612fc5565b60405180910390f35b6103e760048036038101906103e2919061291a565b6112c5565b6040516103f49190613002565b60405180910390f35b6104176004803603810190610412919061274a565b61136c565b6040516104249190612fe7565b60405180910390f35b61044760048036038101906104429190612721565b611400565b005b60007f80ac58cd000000000000000000000000000000000000000000000000000000007bffffffffffffffffffffffffffffffffffffffffffffffffffffffff1916827bffffffffffffffffffffffffffffffffffffffffffffffffffffffff1916148061051457507f5b5e139f000000000000000000000000000000000000000000000000000000007bffffffffffffffffffffffffffffffffffffffffffffffffffffffff1916827bffffffffffffffffffffffffffffffffffffffffffffffffffffffff1916145b806105245750610523826114f8565b5b9050919050565b60606000805461053a90613597565b80601f016020809104026020016040519081016040528092919081815260200182805461056690613597565b80156105b35780601f10610588576101008083540402835291602001916105b3565b820191906000526020600020905b81548152906001019060200180831161059657829003601f168201915b5050505050905090565b60006105c882611562565b610607576040517f08c379a00000000000000000000000000000000000000000000000000000000081526004016105fe90613184565b60405180910390fd5b6004600083815260200190815260200160002060009054906101000a900473ffffffffffffffffffffffffffffffffffffffff169050919050565b600061064d82610b66565b90508073ffffffffffffffffffffffffffffffffffffffff168373ffffffffffffffffffffffffffffffffffffffff1614156106be576040517f08c379a00000000000000000000000000000000000000000000000000000000081526004016106b5906131e4565b60405180910390fd5b8073ffffffffffffffffffffffffffffffffffffffff166106dd6115ce565b73ffffffffffffffffffffffffffffffffffffffff16148061070c575061070b816107066115ce565b61136c565b5b61074b576040517f08c379a000000000000000000000000000000000000000000000000000000000815260040161074290613104565b60405180910390fd5b61075583836115d6565b505050565b61076b6107656115ce565b8261168f565b6107aa576040517f08c379a00000000000000000000000000000000000000000000000000000000081526004016107a190613204565b60405180910390fd5b6107b583838361176d565b505050565b60006107c46115ce565b73ffffffffffffffffffffffffffffffffffffffff166107e2610eed565b73ffffffffffffffffffffffffffffffffffffffff1614610838576040517f08c379a000000000000000000000000000000000000000000000000000000000815260040161082f906131a4565b60405180910390fd5b60086000838152602001908152602001600020600080820160009055600182016000905560028201600061086c919061237f565b60038201600061087c91906123a0565b6004820160006101000a81549073ffffffffffffffffffffffffffffffffffffffff021916905550506108ae826119d4565b60019050919050565b6108d283838360405180602001604052806000815250610fbf565b505050565b6108df6123e0565b600860008381526020019081526020016000206040518060a001604052908160008201548152602001600182015481526020016002820180548060200260200160405190810160405280929190818152602001828054801561099657602002820191906000526020600020905b8160009054906101000a900473ffffffffffffffffffffffffffffffffffffffff1673ffffffffffffffffffffffffffffffffffffffff168152602001906001019080831161094c575b505050505081526020016003820180546109af90613597565b80601f01602080910402602001604051908101604052809291908181526020018280546109db90613597565b8015610a285780601f106109fd57610100808354040283529160200191610a28565b820191906000526020600020905b815481529060010190602001808311610a0b57829003601f168201915b505050505081526020016004820160009054906101000a900473ffffffffffffffffffffffffffffffffffffffff1673ffffffffffffffffffffffffffffffffffffffff1673ffffffffffffffffffffffffffffffffffffffff16815250509050919050565b6008602052806000526040600020600091509050806000015490806001015490806003018054610abd90613597565b80601f0160208091040260200160405190810160405280929190818152602001828054610ae990613597565b8015610b365780601f10610b0b57610100808354040283529160200191610b36565b820191906000526020600020905b815481529060010190602001808311610b1957829003601f168201915b5050505050908060040160009054906101000a900473ffffffffffffffffffffffffffffffffffffffff16905084565b6000806002600084815260200190815260200160002060009054906101000a900473ffffffffffffffffffffffffffffffffffffffff169050600073ffffffffffffffffffffffffffffffffffffffff168173ffffffffffffffffffffffffffffffffffffffff161415610c0f576040517f08c379a0000000000000000000000000000000000000000000000000000000008152600401610c0690613144565b60405180910390fd5b80915050919050565b60008073ffffffffffffffffffffffffffffffffffffffff168273ffffffffffffffffffffffffffffffffffffffff161415610c89576040517f08c379a0000000000000000000000000000000000000000000000000000000008152600401610c8090613124565b60405180910390fd5b600360008373ffffffffffffffffffffffffffffffffffffffff1673ffffffffffffffffffffffffffffffffffffffff168152602001908152602001600020549050919050565b610cd86115ce565b73ffffffffffffffffffffffffffffffffffffffff16610cf6610eed565b73ffffffffffffffffffffffffffffffffffffffff1614610d4c576040517f08c379a0000000000000000000000000000000000000000000000000000000008152600401610d43906131a4565b60405180910390fd5b610d566000611af1565b565b6000610d626115ce565b73ffffffffffffffffffffffffffffffffffffffff16610d80610eed565b73ffffffffffffffffffffffffffffffffffffffff1614610dd6576040517f08c379a0000000000000000000000000000000000000000000000000000000008152600401610dcd906131a4565b60405180910390fd5b6000610de26007611bb7565b9050610dee3382611bc5565b6040518060a001604052808881526020018781526020018681526020018581526020018473ffffffffffffffffffffffffffffffffffffffff168152506008600083815260200190815260200160002060008201518160000155602082015181600101556040820151816002019080519060200190610e6e929190612425565b506060820151816003019080519060200190610e8b9291906124af565b5060808201518160040160006101000a81548173ffffffffffffffffffffffffffffffffffffffff021916908373ffffffffffffffffffffffffffffffffffffffff160217905550905050610ee06007611be3565b8091505095945050505050565b6000600660009054906101000a900473ffffffffffffffffffffffffffffffffffffffff16905090565b606060018054610f2690613597565b80601f0160208091040260200160405190810160405280929190818152602001828054610f5290613597565b8015610f9f5780601f10610f7457610100808354040283529160200191610f9f565b820191906000526020600020905b815481529060010190602001808311610f8257829003601f168201915b5050505050905090565b610fbb610fb46115ce565b8383611bf9565b5050565b610fd0610fca6115ce565b8361168f565b61100f576040517f08c379a000000000000000000000000000000000000000000000000000000000815260040161100690613204565b60405180910390fd5b61101b84848484611d66565b50505050565b6060600061102f6007611bb7565b67ffffffffffffffff81111561106e577f4e487b7100000000000000000000000000000000000000000000000000000000600052604160045260246000fd5b6040519080825280602002602001820160405280156110a757816020015b6110946123e0565b81526020019060019003908161108c5790505b50905060005b6110b76007611bb7565b8110156112bd57600860008281526020019081526020016000206040518060a001604052908160008201548152602001600182015481526020016002820180548060200260200160405190810160405280929190818152602001828054801561117557602002820191906000526020600020905b8160009054906101000a900473ffffffffffffffffffffffffffffffffffffffff1673ffffffffffffffffffffffffffffffffffffffff168152602001906001019080831161112b575b5050505050815260200160038201805461118e90613597565b80601f01602080910402602001604051908101604052809291908181526020018280546111ba90613597565b80156112075780601f106111dc57610100808354040283529160200191611207565b820191906000526020600020905b8154815290600101906020018083116111ea57829003601f168201915b505050505081526020016004820160009054906101000a900473ffffffffffffffffffffffffffffffffffffffff1673ffffffffffffffffffffffffffffffffffffffff1673ffffffffffffffffffffffffffffffffffffffff168152505082828151811061129f577f4e487b7100000000000000000000000000000000000000000000000000000000600052603260045260246000fd5b602002602001018190525080806112b5906135fa565b9150506110ad565b508091505090565b60606112d082611562565b61130f576040517f08c379a0000000000000000000000000000000000000000000000000000000008152600401611306906131c4565b60405180910390fd5b6000611319611dc2565b905060008151116113395760405180602001604052806000815250611364565b8061134384611dd9565b604051602001611354929190612f3a565b6040516020818303038152906040525b915050919050565b6000600560008473ffffffffffffffffffffffffffffffffffffffff1673ffffffffffffffffffffffffffffffffffffffff16815260200190815260200160002060008373ffffffffffffffffffffffffffffffffffffffff1673ffffffffffffffffffffffffffffffffffffffff16815260200190815260200160002060009054906101000a900460ff16905092915050565b6114086115ce565b73ffffffffffffffffffffffffffffffffffffffff16611426610eed565b73ffffffffffffffffffffffffffffffffffffffff161461147c576040517f08c379a0000000000000000000000000000000000000000000000000000000008152600401611473906131a4565b60405180910390fd5b600073ffffffffffffffffffffffffffffffffffffffff168173ffffffffffffffffffffffffffffffffffffffff1614156114ec576040517f08c379a00000000000000000000000000000000000000000000000000000000081526004016114e390613044565b60405180910390fd5b6114f581611af1565b50565b60007f01ffc9a7000000000000000000000000000000000000000000000000000000007bffffffffffffffffffffffffffffffffffffffffffffffffffffffff1916827bffffffffffffffffffffffffffffffffffffffffffffffffffffffff1916149050919050565b60008073ffffffffffffffffffffffffffffffffffffffff166002600084815260200190815260200160002060009054906101000a900473ffffffffffffffffffffffffffffffffffffffff1673ffffffffffffffffffffffffffffffffffffffff1614159050919050565b600033905090565b816004600083815260200190815260200160002060006101000a81548173ffffffffffffffffffffffffffffffffffffffff021916908373ffffffffffffffffffffffffffffffffffffffff160217905550808273ffffffffffffffffffffffffffffffffffffffff1661164983610b66565b73ffffffffffffffffffffffffffffffffffffffff167f8c5be1e5ebec7d5bd14f71427d1e84f3dd0314c0f7b2291e5b200ac8c7c3b92560405160405180910390a45050565b600061169a82611562565b6116d9576040517f08c379a00000000000000000000000000000000000000000000000000000000081526004016116d0906130e4565b60405180910390fd5b60006116e483610b66565b90508073ffffffffffffffffffffffffffffffffffffffff168473ffffffffffffffffffffffffffffffffffffffff16148061175357508373ffffffffffffffffffffffffffffffffffffffff1661173b846105bd565b73ffffffffffffffffffffffffffffffffffffffff16145b806117645750611763818561136c565b5b91505092915050565b8273ffffffffffffffffffffffffffffffffffffffff1661178d82610b66565b73ffffffffffffffffffffffffffffffffffffffff16146117e3576040517f08c379a00000000000000000000000000000000000000000000000000000000081526004016117da90613064565b60405180910390fd5b600073ffffffffffffffffffffffffffffffffffffffff168273ffffffffffffffffffffffffffffffffffffffff161415611853576040517f08c379a000000000000000000000000000000000000000000000000000000000815260040161184a906130a4565b60405180910390fd5b61185e838383611f86565b6118696000826115d6565b6001600360008573ffffffffffffffffffffffffffffffffffffffff1673ffffffffffffffffffffffffffffffffffffffff16815260200190815260200160002060008282546118b991906134ad565b925050819055506001600360008473ffffffffffffffffffffffffffffffffffffffff1673ffffffffffffffffffffffffffffffffffffffff16815260200190815260200160002060008282546119109190613426565b92505081905550816002600083815260200190815260200160002060006101000a81548173ffffffffffffffffffffffffffffffffffffffff021916908373ffffffffffffffffffffffffffffffffffffffff160217905550808273ffffffffffffffffffffffffffffffffffffffff168473ffffffffffffffffffffffffffffffffffffffff167fddf252ad1be2c89b69c2b068fc378daa952ba7f163c4a11628f55a4df523b3ef60405160405180910390a46119cf838383611f8b565b505050565b60006119df82610b66565b90506119ed81600084611f86565b6119f86000836115d6565b6001600360008373ffffffffffffffffffffffffffffffffffffffff1673ffffffffffffffffffffffffffffffffffffffff1681526020019081526020016000206000828254611a4891906134ad565b925050819055506002600083815260200190815260200160002060006101000a81549073ffffffffffffffffffffffffffffffffffffffff021916905581600073ffffffffffffffffffffffffffffffffffffffff168273ffffffffffffffffffffffffffffffffffffffff167fddf252ad1be2c89b69c2b068fc378daa952ba7f163c4a11628f55a4df523b3ef60405160405180910390a4611aed81600084611f8b565b5050565b6000600660009054906101000a900473ffffffffffffffffffffffffffffffffffffffff16905081600660006101000a81548173ffffffffffffffffffffffffffffffffffffffff021916908373ffffffffffffffffffffffffffffffffffffffff1602179055508173ffffffffffffffffffffffffffffffffffffffff168173ffffffffffffffffffffffffffffffffffffffff167f8be0079c531659141344cd1fd0a4f28419497f9722a3daafe3b4186f6b6457e060405160405180910390a35050565b600081600001549050919050565b611bdf828260405180602001604052806000815250611f90565b5050565b6001816000016000828254019250508190555050565b8173ffffffffffffffffffffffffffffffffffffffff168373ffffffffffffffffffffffffffffffffffffffff161415611c68576040517f08c379a0000000000000000000000000000000000000000000000000000000008152600401611c5f906130c4565b60405180910390fd5b80600560008573ffffffffffffffffffffffffffffffffffffffff1673ffffffffffffffffffffffffffffffffffffffff16815260200190815260200160002060008473ffffffffffffffffffffffffffffffffffffffff1673ffffffffffffffffffffffffffffffffffffffff16815260200190815260200160002060006101000a81548160ff0219169083151502179055508173ffffffffffffffffffffffffffffffffffffffff168373ffffffffffffffffffffffffffffffffffffffff167f17307eab39ab6107e8899845ad3d59bd9653f200f220920489ca2b5937696c3183604051611d599190612fe7565b60405180910390a3505050565b611d7184848461176d565b611d7d84848484611feb565b611dbc576040517f08c379a0000000000000000000000000000000000000000000000000000000008152600401611db390613024565b60405180910390fd5b50505050565b606060405180602001604052806000815250905090565b60606000821415611e21576040518060400160405280600181526020017f30000000000000000000000000000000000000000000000000000000000000008152509050611f81565b600082905060005b60008214611e53578080611e3c906135fa565b915050600a82611e4c919061347c565b9150611e29565b60008167ffffffffffffffff811115611e95577f4e487b7100000000000000000000000000000000000000000000000000000000600052604160045260246000fd5b6040519080825280601f01601f191660200182016040528015611ec75781602001600182028036833780820191505090505b5090505b60008514611f7a57600182611ee091906134ad565b9150600a85611eef9190613643565b6030611efb9190613426565b60f81b818381518110611f37577f4e487b7100000000000000000000000000000000000000000000000000000000600052603260045260246000fd5b60200101907effffffffffffffffffffffffffffffffffffffffffffffffffffffffffffff1916908160001a905350600a85611f73919061347c565b9450611ecb565b8093505050505b919050565b505050565b505050565b611f9a8383612182565b611fa76000848484611feb565b611fe6576040517f08c379a0000000000000000000000000000000000000000000000000000000008152600401611fdd90613024565b60405180910390fd5b505050565b600061200c8473ffffffffffffffffffffffffffffffffffffffff1661235c565b15612175578373ffffffffffffffffffffffffffffffffffffffff1663150b7a026120356115ce565b8786866040518563ffffffff1660e01b81526004016120579493929190612f79565b602060405180830381600087803b15801561207157600080fd5b505af19250505080156120a257506040513d601f19601f8201168201806040525081019061209f91906128f1565b60015b612125573d80600081146120d2576040519150601f19603f3d011682016040523d82523d6000602084013e6120d7565b606091505b5060008151141561211d576040517f08c379a000000000000000000000000000000000000000000000000000000000815260040161211490613024565b60405180910390fd5b805181602001fd5b63150b7a0260e01b7bffffffffffffffffffffffffffffffffffffffffffffffffffffffff1916817bffffffffffffffffffffffffffffffffffffffffffffffffffffffff19161491505061217a565b600190505b949350505050565b600073ffffffffffffffffffffffffffffffffffffffff168273ffffffffffffffffffffffffffffffffffffffff1614156121f2576040517f08c379a00000000000000000000000000000000000000000000000000000000081526004016121e990613164565b60405180910390fd5b6121fb81611562565b1561223b576040517f08c379a000000000000000000000000000000000000000000000000000000000815260040161223290613084565b60405180910390fd5b61224760008383611f86565b6001600360008473ffffffffffffffffffffffffffffffffffffffff1673ffffffffffffffffffffffffffffffffffffffff16815260200190815260200160002060008282546122979190613426565b92505081905550816002600083815260200190815260200160002060006101000a81548173ffffffffffffffffffffffffffffffffffffffff021916908373ffffffffffffffffffffffffffffffffffffffff160217905550808273ffffffffffffffffffffffffffffffffffffffff16600073ffffffffffffffffffffffffffffffffffffffff167fddf252ad1be2c89b69c2b068fc378daa952ba7f163c4a11628f55a4df523b3ef60405160405180910390a461235860008383611f8b565b5050565b6000808273ffffffffffffffffffffffffffffffffffffffff163b119050919050565b508054600082559060005260206000209081019061239d9190612535565b50565b5080546123ac90613597565b6000825580601f106123be57506123dd565b601f0160209004906000526020600020908101906123dc9190612535565b5b50565b6040518060a0016040528060008152602001600081526020016060815260200160608152602001600073ffffffffffffffffffffffffffffffffffffffff1681525090565b82805482825590600052602060002090810192821561249e579160200282015b8281111561249d5782518260006101000a81548173ffffffffffffffffffffffffffffffffffffffff021916908373ffffffffffffffffffffffffffffffffffffffff16021790555091602001919060010190612445565b5b5090506124ab9190612535565b5090565b8280546124bb90613597565b90600052602060002090601f0160209004810192826124dd5760008555612524565b82601f106124f657805160ff1916838001178555612524565b82800160010185558215612524579182015b82811115612523578251825591602001919060010190612508565b5b5090506125319190612535565b5090565b5b8082111561254e576000816000905550600101612536565b5090565b6000612565612560846132d2565b6132ad565b9050808382526020820190508285602086028201111561258457600080fd5b60005b858110156125b4578161259a888261263a565b845260208401935060208301925050600181019050612587565b5050509392505050565b60006125d16125cc846132fe565b6132ad565b9050828152602081018484840111156125e957600080fd5b6125f4848285613555565b509392505050565b600061260f61260a8461332f565b6132ad565b90508281526020810184848401111561262757600080fd5b612632848285613555565b509392505050565b60008135905061264981613b99565b92915050565b600082601f83011261266057600080fd5b8135612670848260208601612552565b91505092915050565b60008135905061268881613bb0565b92915050565b60008135905061269d81613bc7565b92915050565b6000815190506126b281613bc7565b92915050565b600082601f8301126126c957600080fd5b81356126d98482602086016125be565b91505092915050565b600082601f8301126126f357600080fd5b81356127038482602086016125fc565b91505092915050565b60008135905061271b81613bde565b92915050565b60006020828403121561273357600080fd5b60006127418482850161263a565b91505092915050565b6000806040838503121561275d57600080fd5b600061276b8582860161263a565b925050602061277c8582860161263a565b9150509250929050565b60008060006060848603121561279b57600080fd5b60006127a98682870161263a565b93505060206127ba8682870161263a565b92505060406127cb8682870161270c565b9150509250925092565b600080600080608085870312156127eb57600080fd5b60006127f98782880161263a565b945050602061280a8782880161263a565b935050604061281b8782880161270c565b925050606085013567ffffffffffffffff81111561283857600080fd5b612844878288016126b8565b91505092959194509250565b6000806040838503121561286357600080fd5b60006128718582860161263a565b925050602061288285828601612679565b9150509250929050565b6000806040838503121561289f57600080fd5b60006128ad8582860161263a565b92505060206128be8582860161270c565b9150509250929050565b6000602082840312156128da57600080fd5b60006128e88482850161268e565b91505092915050565b60006020828403121561290357600080fd5b6000612911848285016126a3565b91505092915050565b60006020828403121561292c57600080fd5b600061293a8482850161270c565b91505092915050565b600080600080600060a0868803121561295b57600080fd5b60006129698882890161270c565b955050602061297a8882890161270c565b945050604086013567ffffffffffffffff81111561299757600080fd5b6129a38882890161264f565b935050606086013567ffffffffffffffff8111156129c057600080fd5b6129cc888289016126e2565b92505060806129dd8882890161263a565b9150509295509295909350565b60006129f68383612a16565b60208301905092915050565b6000612a0e8383612e22565b905092915050565b612a1f816134e1565b82525050565b612a2e816134e1565b82525050565b6000612a3f82613380565b612a4981856133c6565b9350612a5483613360565b8060005b83811015612a85578151612a6c88826129ea565b9750612a77836133ac565b925050600181019050612a58565b5085935050505092915050565b6000612a9d8261338b565b612aa781856133d7565b935083602082028501612ab985613370565b8060005b85811015612af55784840389528151612ad68582612a02565b9450612ae1836133b9565b925060208a01995050600181019050612abd565b50829750879550505050505092915050565b612b10816134f3565b82525050565b6000612b2182613396565b612b2b81856133e8565b9350612b3b818560208601613564565b612b4481613730565b840191505092915050565b6000612b5a826133a1565b612b6481856133f9565b9350612b74818560208601613564565b612b7d81613730565b840191505092915050565b6000612b93826133a1565b612b9d818561340a565b9350612bad818560208601613564565b612bb681613730565b840191505092915050565b6000612bcc826133a1565b612bd6818561341b565b9350612be6818560208601613564565b80840191505092915050565b6000612bff60328361340a565b9150612c0a82613741565b604082019050919050565b6000612c2260268361340a565b9150612c2d82613790565b604082019050919050565b6000612c4560258361340a565b9150612c50826137df565b604082019050919050565b6000612c68601c8361340a565b9150612c738261382e565b602082019050919050565b6000612c8b60248361340a565b9150612c9682613857565b604082019050919050565b6000612cae60198361340a565b9150612cb9826138a6565b602082019050919050565b6000612cd1602c8361340a565b9150612cdc826138cf565b604082019050919050565b6000612cf460388361340a565b9150612cff8261391e565b604082019050919050565b6000612d17602a8361340a565b9150612d228261396d565b604082019050919050565b6000612d3a60298361340a565b9150612d45826139bc565b604082019050919050565b6000612d5d60208361340a565b9150612d6882613a0b565b602082019050919050565b6000612d80602c8361340a565b9150612d8b82613a34565b604082019050919050565b6000612da360208361340a565b9150612dae82613a83565b602082019050919050565b6000612dc6602f8361340a565b9150612dd182613aac565b604082019050919050565b6000612de960218361340a565b9150612df482613afb565b604082019050919050565b6000612e0c60318361340a565b9150612e1782613b4a565b604082019050919050565b600060a083016000830151612e3a6000860182612f1c565b506020830151612e4d6020860182612f1c565b5060408301518482036040860152612e658282612a34565b91505060608301518482036060860152612e7f8282612b4f565b9150506080830151612e946080860182612a16565b508091505092915050565b600060a083016000830151612eb76000860182612f1c565b506020830151612eca6020860182612f1c565b5060408301518482036040860152612ee28282612a34565b91505060608301518482036060860152612efc8282612b4f565b9150506080830151612f116080860182612a16565b508091505092915050565b612f258161354b565b82525050565b612f348161354b565b82525050565b6000612f468285612bc1565b9150612f528284612bc1565b91508190509392505050565b6000602082019050612f736000830184612a25565b92915050565b6000608082019050612f8e6000830187612a25565b612f9b6020830186612a25565b612fa86040830185612f2b565b8181036060830152612fba8184612b16565b905095945050505050565b60006020820190508181036000830152612fdf8184612a92565b905092915050565b6000602082019050612ffc6000830184612b07565b92915050565b6000602082019050818103600083015261301c8184612b88565b905092915050565b6000602082019050818103600083015261303d81612bf2565b9050919050565b6000602082019050818103600083015261305d81612c15565b9050919050565b6000602082019050818103600083015261307d81612c38565b9050919050565b6000602082019050818103600083015261309d81612c5b565b9050919050565b600060208201905081810360008301526130bd81612c7e565b9050919050565b600060208201905081810360008301526130dd81612ca1565b9050919050565b600060208201905081810360008301526130fd81612cc4565b9050919050565b6000602082019050818103600083015261311d81612ce7565b9050919050565b6000602082019050818103600083015261313d81612d0a565b9050919050565b6000602082019050818103600083015261315d81612d2d565b9050919050565b6000602082019050818103600083015261317d81612d50565b9050919050565b6000602082019050818103600083015261319d81612d73565b9050919050565b600060208201905081810360008301526131bd81612d96565b9050919050565b600060208201905081810360008301526131dd81612db9565b9050919050565b600060208201905081810360008301526131fd81612ddc565b9050919050565b6000602082019050818103600083015261321d81612dff565b9050919050565b6000602082019050818103600083015261323e8184612e9f565b905092915050565b600060208201905061325b6000830184612f2b565b92915050565b60006080820190506132766000830187612f2b565b6132836020830186612f2b565b81810360408301526132958185612b88565b90506132a46060830184612a25565b95945050505050565b60006132b76132c8565b90506132c382826135c9565b919050565b6000604051905090565b600067ffffffffffffffff8211156132ed576132ec613701565b5b602082029050602081019050919050565b600067ffffffffffffffff82111561331957613318613701565b5b61332282613730565b9050602081019050919050565b600067ffffffffffffffff82111561334a57613349613701565b5b61335382613730565b9050602081019050919050565b6000819050602082019050919050565b6000819050602082019050919050565b600081519050919050565b600081519050919050565b600081519050919050565b600081519050919050565b6000602082019050919050565b6000602082019050919050565b600082825260208201905092915050565b600082825260208201905092915050565b600082825260208201905092915050565b600082825260208201905092915050565b600082825260208201905092915050565b600081905092915050565b60006134318261354b565b915061343c8361354b565b9250827fffffffffffffffffffffffffffffffffffffffffffffffffffffffffffffffff0382111561347157613470613674565b5b828201905092915050565b60006134878261354b565b91506134928361354b565b9250826134a2576134a16136a3565b5b828204905092915050565b60006134b88261354b565b91506134c38361354b565b9250828210156134d6576134d5613674565b5b828203905092915050565b60006134ec8261352b565b9050919050565b60008115159050919050565b60007fffffffff0000000000000000000000000000000000000000000000000000000082169050919050565b600073ffffffffffffffffffffffffffffffffffffffff82169050919050565b6000819050919050565b82818337600083830152505050565b60005b83811015613582578082015181840152602081019050613567565b83811115613591576000848401525b50505050565b600060028204905060018216806135af57607f821691505b602082108114156135c3576135c26136d2565b5b50919050565b6135d282613730565b810181811067ffffffffffffffff821117156135f1576135f0613701565b5b80604052505050565b60006136058261354b565b91507fffffffffffffffffffffffffffffffffffffffffffffffffffffffffffffffff82141561363857613637613674565b5b600182019050919050565b600061364e8261354b565b91506136598361354b565b925082613669576136686136a3565b5b828206905092915050565b7f4e487b7100000000000000000000000000000000000000000000000000000000600052601160045260246000fd5b7f4e487b7100000000000000000000000000000000000000000000000000000000600052601260045260246000fd5b7f4e487b7100000000000000000000000000000000000000000000000000000000600052602260045260246000fd5b7f4e487b7100000000000000000000000000000000000000000000000000000000600052604160045260246000fd5b6000601f19601f8301169050919050565b7f4552433732313a207472616e7366657220746f206e6f6e20455243373231526560008201527f63656976657220696d706c656d656e7465720000000000000000000000000000602082015250565b7f4f776e61626c653a206e6577206f776e657220697320746865207a65726f206160008201527f6464726573730000000000000000000000000000000000000000000000000000602082015250565b7f4552433732313a207472616e736665722066726f6d20696e636f72726563742060008201527f6f776e6572000000000000000000000000000000000000000000000000000000602082015250565b7f4552433732313a20746f6b656e20616c7265616479206d696e74656400000000600082015250565b7f4552433732313a207472616e7366657220746f20746865207a65726f2061646460008201527f7265737300000000000000000000000000000000000000000000000000000000602082015250565b7f4552433732313a20617070726f766520746f2063616c6c657200000000000000600082015250565b7f4552433732313a206f70657261746f7220717565727920666f72206e6f6e657860008201527f697374656e7420746f6b656e0000000000000000000000000000000000000000602082015250565b7f4552433732313a20617070726f76652063616c6c6572206973206e6f74206f7760008201527f6e6572206e6f7220617070726f76656420666f7220616c6c0000000000000000602082015250565b7f4552433732313a2062616c616e636520717565727920666f7220746865207a6560008201527f726f206164647265737300000000000000000000000000000000000000000000602082015250565b7f4552433732313a206f776e657220717565727920666f72206e6f6e657869737460008201527f656e7420746f6b656e0000000000000000000000000000000000000000000000602082015250565b7f4552433732313a206d696e7420746f20746865207a65726f2061646472657373600082015250565b7f4552433732313a20617070726f76656420717565727920666f72206e6f6e657860008201527f697374656e7420746f6b656e0000000000000000000000000000000000000000602082015250565b7f4f776e61626c653a2063616c6c6572206973206e6f7420746865206f776e6572600082015250565b7f4552433732314d657461646174613a2055524920717565727920666f72206e6f60008201527f6e6578697374656e7420746f6b656e0000000000000000000000000000000000602082015250565b7f4552433732313a20617070726f76616c20746f2063757272656e74206f776e6560008201527f7200000000000000000000000000000000000000000000000000000000000000602082015250565b7f4552433732313a207472616e736665722063616c6c6572206973206e6f74206f60008201527f776e6572206e6f7220617070726f766564000000000000000000000000000000602082015250565b613ba2816134e1565b8114613bad57600080fd5b50565b613bb9816134f3565b8114613bc457600080fd5b50565b613bd0816134ff565b8114613bdb57600080fd5b50565b613be78161354b565b8114613bf257600080fd5b5056fea264697066735822122009832efc1bfd00413dd5542587bb8bd88952944a4d0f7c8bb52d715e632ca97f64736f6c63430008040033",
  "linkReferences": {},
  "deployedLinkReferences": {}
}