{
  "_format": "hh-sol-artifact-1",
  "contractName": "CalendarManager",
  "sourceName": "contracts/CalendarManager.sol",
  "abi": [
    {
      "inputs": [
        {
          "internalType": "contract Event",
          "name": "_eventContract",
          "type": "address"
        }
      ],
      "stateMutability": "nonpayable",
      "type": "constructor"
    },
    {
      "anonymous": false,
      "inputs": [
        {
          "indexed": false,
          "internalType": "uint256",
          "name": "eventId",
          "type": "uint256"
        }
      ],
      "name": "EventCancelled",
      "type": "event"
    },
    {
      "anonymous": false,
      "inputs": [
        {
          "indexed": false,
          "internalType": "uint256",
          "name": "eventId",
          "type": "uint256"
        }
      ],
      "name": "EventCreated",
      "type": "event"
    },
    {
      "anonymous": false,
      "inputs": [
        {
          "indexed": true,
          "internalType": "address",
          "name": "by",
          "type": "address"
        },
        {
          "indexed": true,
          "internalType": "address",
          "name": "from",
          "type": "address"
        }
      ],
      "name": "InvitesAllowed",
      "type": "event"
    },
    {
      "anonymous": false,
      "inputs": [
        {
          "indexed": true,
          "internalType": "address",
          "name": "by",
          "type": "address"
        },
        {
          "indexed": true,
          "internalType": "address",
          "name": "from",
          "type": "address"
        }
      ],
      "name": "InvitesDisabled",
      "type": "event"
    },
    {
      "inputs": [
        {
          "internalType": "address",
          "name": "from",
          "type": "address"
        }
      ],
      "name": "allowInvites",
      "outputs": [],
      "stateMutability": "nonpayable",
      "type": "function"
    },
    {
      "inputs": [
        {
          "internalType": "uint256",
          "name": "eventId",
          "type": "uint256"
        }
      ],
      "name": "cancelEvent",
      "outputs": [
        {
          "internalType": "bool",
          "name": "",
          "type": "bool"
        }
      ],
      "stateMutability": "nonpayable",
      "type": "function"
    },
    {
      "inputs": [
        {
          "internalType": "address[]",
          "name": "invitees",
          "type": "address[]"
        },
        {
          "internalType": "uint256",
          "name": "startDate",
          "type": "uint256"
        },
        {
          "internalType": "uint256",
          "name": "endDate",
          "type": "uint256"
        },
        {
          "internalType": "string",
          "name": "description",
          "type": "string"
        }
      ],
      "name": "createEvent",
      "outputs": [
        {
          "internalType": "uint256",
          "name": "",
          "type": "uint256"
        }
      ],
      "stateMutability": "nonpayable",
      "type": "function"
    },
    {
      "inputs": [
        {
          "internalType": "address",
          "name": "from",
          "type": "address"
        }
      ],
      "name": "disableInvites",
      "outputs": [],
      "stateMutability": "nonpayable",
      "type": "function"
    },
    {
      "inputs": [],
      "name": "eventContract",
      "outputs": [
        {
          "internalType": "contract Event",
          "name": "",
          "type": "address"
        }
      ],
      "stateMutability": "view",
      "type": "function"
    },
    {
      "inputs": [
        {
          "internalType": "address",
          "name": "from",
          "type": "address"
        }
      ],
      "name": "isInviteAllowed",
      "outputs": [
        {
          "internalType": "bool",
          "name": "",
          "type": "bool"
        }
      ],
      "stateMutability": "view",
      "type": "function"
    },
    {
      "inputs": [
        {
          "internalType": "address",
          "name": "by",
          "type": "address"
        },
        {
          "internalType": "address",
          "name": "from",
          "type": "address"
        }
      ],
      "name": "isInviteAllowedBy",
      "outputs": [
        {
          "internalType": "bool",
          "name": "",
          "type": "bool"
        }
      ],
      "stateMutability": "view",
      "type": "function"
    },
    {
      "inputs": [
        {
          "internalType": "address",
          "name": "",
          "type": "address"
        },
        {
          "internalType": "address",
          "name": "",
          "type": "address"
        },
        {
          "internalType": "uint256",
          "name": "",
          "type": "uint256"
        },
        {
          "internalType": "bytes",
          "name": "",
          "type": "bytes"
        }
      ],
      "name": "onERC721Received",
      "outputs": [
        {
          "internalType": "bytes4",
          "name": "",
          "type": "bytes4"
        }
      ],
      "stateMutability": "pure",
      "type": "function"
    }
  ],
  "bytecode": "0x60806040523480156200001157600080fd5b506040516200178538038062001785833981810160405281019062000037919062000095565b806000806101000a81548173ffffffffffffffffffffffffffffffffffffffff021916908373ffffffffffffffffffffffffffffffffffffffff1602179055505062000123565b6000815190506200008f8162000109565b92915050565b600060208284031215620000a857600080fd5b6000620000b8848285016200007e565b91505092915050565b6000620000ce82620000e9565b9050919050565b6000620000e282620000c1565b9050919050565b600073ffffffffffffffffffffffffffffffffffffffff82169050919050565b6200011481620000d5565b81146200012057600080fd5b50565b61165280620001336000396000f3fe608060405234801561001057600080fd5b50600436106100885760003560e01c8063bc5a7f9a1161005b578063bc5a7f9a14610139578063bd4524b814610155578063c5fde3b214610185578063e274fd24146101b557610088565b8063150b7a021461008d5780633f69babd146100bd578063510f92c0146100ed5780636dfe218514610109575b600080fd5b6100a760048036038101906100a29190610e66565b6101d3565b6040516100b4919061119f565b60405180910390f35b6100d760048036038101906100d29190610fe3565b6101e8565b6040516100e49190611184565b60405180910390f35b61010760048036038101906101029190610e01565b6103fb565b005b610123600480360381019061011e9190610e2a565b6104a1565b6040516101309190611184565b60405180910390f35b610153600480360381019061014e9190610e01565b6104f3565b005b61016f600480360381019061016a9190610ee6565b610599565b60405161017c9190611215565b60405180910390f35b61019f600480360381019061019a9190610e01565b61077c565b6040516101ac9190611184565b60405180910390f35b6101bd6107cd565b6040516101ca91906111ba565b60405180910390f35b600063150b7a0260e01b905095945050505050565b6000813373ffffffffffffffffffffffffffffffffffffffff1660008054906101000a900473ffffffffffffffffffffffffffffffffffffffff1673ffffffffffffffffffffffffffffffffffffffff16634392bb68836040518263ffffffff1660e01b815260040161025b9190611215565b60006040518083038186803b15801561027357600080fd5b505afa158015610287573d6000803e3d6000fd5b505050506040513d6000823e3d601f19601f820116820180604052508101906102b09190610fa2565b6080015173ffffffffffffffffffffffffffffffffffffffff161461030a576040517f08c379a0000000000000000000000000000000000000000000000000000000008152600401610301906111d5565b60405180910390fd5b60008060009054906101000a900473ffffffffffffffffffffffffffffffffffffffff1673ffffffffffffffffffffffffffffffffffffffff16633f69babd856040518263ffffffff1660e01b81526004016103669190611215565b602060405180830381600087803b15801561038057600080fd5b505af1158015610394573d6000803e3d6000fd5b505050506040513d601f19601f820116820180604052508101906103b89190610f79565b90507fdc3cb569b066460f4a22dffa05317bdcce5d3826382ed49a21f13e5fa2063d39846040516103e99190611215565b60405180910390a18092505050919050565b610443600160003373ffffffffffffffffffffffffffffffffffffffff1673ffffffffffffffffffffffffffffffffffffffff168152602001908152602001600020826107f1565b508073ffffffffffffffffffffffffffffffffffffffff163373ffffffffffffffffffffffffffffffffffffffff167f9f02b536eb73a4e645528845b1f63d2e6d841367c6208160e99f96049150dbfa60405160405180910390a350565b60006104eb600160008573ffffffffffffffffffffffffffffffffffffffff1673ffffffffffffffffffffffffffffffffffffffff16815260200190815260200160002083610821565b905092915050565b61053b600160003373ffffffffffffffffffffffffffffffffffffffff1673ffffffffffffffffffffffffffffffffffffffff16815260200190815260200160002082610851565b508073ffffffffffffffffffffffffffffffffffffffff163373ffffffffffffffffffffffffffffffffffffffff167f2bfa30106f10f9208cd8b0a1b04340fa430b6cc9cda736b8debe27a46bf54c4260405160405180910390a350565b6000805b85518110156106805761062e600160008884815181106105e6577f4e487b7100000000000000000000000000000000000000000000000000000000600052603260045260246000fd5b602002602001015173ffffffffffffffffffffffffffffffffffffffff1673ffffffffffffffffffffffffffffffffffffffff16815260200190815260200160002033610821565b61066d576040517f08c379a0000000000000000000000000000000000000000000000000000000008152600401610664906111f5565b60405180910390fd5b8080610678906114a7565b91505061059d565b5060008060009054906101000a900473ffffffffffffffffffffffffffffffffffffffff1673ffffffffffffffffffffffffffffffffffffffff166380df86ed86868987336040518663ffffffff1660e01b81526004016106e5959493929190611230565b602060405180830381600087803b1580156106ff57600080fd5b505af1158015610713573d6000803e3d6000fd5b505050506040513d601f19601f82011682018060405250810190610737919061100c565b90507f748ff5cfd7b66bdd8e21581c2a864756fe7085378c0003183e579bfafba28325816040516107689190611215565b60405180910390a180915050949350505050565b60006107c6600160003373ffffffffffffffffffffffffffffffffffffffff1673ffffffffffffffffffffffffffffffffffffffff16815260200190815260200160002083610821565b9050919050565b60008054906101000a900473ffffffffffffffffffffffffffffffffffffffff1681565b6000610819836000018373ffffffffffffffffffffffffffffffffffffffff1660001b610881565b905092915050565b6000610849836000018373ffffffffffffffffffffffffffffffffffffffff1660001b610a07565b905092915050565b6000610879836000018373ffffffffffffffffffffffffffffffffffffffff1660001b610a2a565b905092915050565b600080836001016000848152602001908152602001600020549050600081146109fb5760006001826108b39190611368565b90506000600186600001805490506108cb9190611368565b9050818114610986576000866000018281548110610912577f4e487b7100000000000000000000000000000000000000000000000000000000600052603260045260246000fd5b906000526020600020015490508087600001848154811061095c577f4e487b7100000000000000000000000000000000000000000000000000000000600052603260045260246000fd5b90600052602060002001819055508387600101600083815260200190815260200160002081905550505b856000018054806109c0577f4e487b7100000000000000000000000000000000000000000000000000000000600052603160045260246000fd5b600190038181906000526020600020016000905590558560010160008681526020019081526020016000206000905560019350505050610a01565b60009150505b92915050565b600080836001016000848152602001908152602001600020541415905092915050565b6000610a368383610a07565b610a8f578260000182908060018154018082558091505060019003906000526020600020016000909190919091505582600001805490508360010160008481526020019081526020016000208190555060019050610a94565b600090505b92915050565b6000610aad610aa8846112b6565b611291565b90508083825260208201905082856020860282011115610acc57600080fd5b60005b85811015610afc5781610ae28882610bee565b845260208401935060208301925050600181019050610acf565b5050509392505050565b6000610b19610b14846112b6565b611291565b90508083825260208201905082856020860282011115610b3857600080fd5b60005b85811015610b685781610b4e8882610c03565b845260208401935060208301925050600181019050610b3b565b5050509392505050565b6000610b85610b80846112e2565b611291565b905082815260208101848484011115610b9d57600080fd5b610ba8848285611434565b509392505050565b6000610bc3610bbe846112e2565b611291565b905082815260208101848484011115610bdb57600080fd5b610be6848285611443565b509392505050565b600081359050610bfd816115d7565b92915050565b600081519050610c12816115d7565b92915050565b600082601f830112610c2957600080fd5b8135610c39848260208601610a9a565b91505092915050565b600082601f830112610c5357600080fd5b8151610c63848260208601610b06565b91505092915050565b600081519050610c7b816115ee565b92915050565b60008083601f840112610c9357600080fd5b8235905067ffffffffffffffff811115610cac57600080fd5b602083019150836001820283011115610cc457600080fd5b9250929050565b600082601f830112610cdc57600080fd5b8135610cec848260208601610b72565b91505092915050565b600082601f830112610d0657600080fd5b8151610d16848260208601610bb0565b91505092915050565b600060a08284031215610d3157600080fd5b610d3b60a0611291565b90506000610d4b84828501610dec565b6000830152506020610d5f84828501610dec565b602083015250604082015167ffffffffffffffff811115610d7f57600080fd5b610d8b84828501610c42565b604083015250606082015167ffffffffffffffff811115610dab57600080fd5b610db784828501610cf5565b6060830152506080610dcb84828501610c03565b60808301525092915050565b600081359050610de681611605565b92915050565b600081519050610dfb81611605565b92915050565b600060208284031215610e1357600080fd5b6000610e2184828501610bee565b91505092915050565b60008060408385031215610e3d57600080fd5b6000610e4b85828601610bee565b9250506020610e5c85828601610bee565b9150509250929050565b600080600080600060808688031215610e7e57600080fd5b6000610e8c88828901610bee565b9550506020610e9d88828901610bee565b9450506040610eae88828901610dd7565b935050606086013567ffffffffffffffff811115610ecb57600080fd5b610ed788828901610c81565b92509250509295509295909350565b60008060008060808587031215610efc57600080fd5b600085013567ffffffffffffffff811115610f1657600080fd5b610f2287828801610c18565b9450506020610f3387828801610dd7565b9350506040610f4487828801610dd7565b925050606085013567ffffffffffffffff811115610f6157600080fd5b610f6d87828801610ccb565b91505092959194509250565b600060208284031215610f8b57600080fd5b6000610f9984828501610c6c565b91505092915050565b600060208284031215610fb457600080fd5b600082015167ffffffffffffffff811115610fce57600080fd5b610fda84828501610d1f565b91505092915050565b600060208284031215610ff557600080fd5b600061100384828501610dd7565b91505092915050565b60006020828403121561101e57600080fd5b600061102c84828501610dec565b91505092915050565b6000611041838361104d565b60208301905092915050565b6110568161139c565b82525050565b6110658161139c565b82525050565b600061107682611323565b6110808185611346565b935061108b83611313565b8060005b838110156110bc5781516110a38882611035565b97506110ae83611339565b92505060018101905061108f565b5085935050505092915050565b6110d2816113ae565b82525050565b6110e1816113ba565b82525050565b6110f081611410565b82525050565b60006111018261132e565b61110b8185611357565b935061111b818560208601611443565b6111248161154e565b840191505092915050565b600061113c602283611357565b91506111478261155f565b604082019050919050565b600061115f601783611357565b915061116a826115ae565b602082019050919050565b61117e81611406565b82525050565b600060208201905061119960008301846110c9565b92915050565b60006020820190506111b460008301846110d8565b92915050565b60006020820190506111cf60008301846110e7565b92915050565b600060208201905081810360008301526111ee8161112f565b9050919050565b6000602082019050818103600083015261120e81611152565b9050919050565b600060208201905061122a6000830184611175565b92915050565b600060a0820190506112456000830188611175565b6112526020830187611175565b8181036040830152611264818661106b565b9050818103606083015261127881856110f6565b9050611287608083018461105c565b9695505050505050565b600061129b6112ac565b90506112a78282611476565b919050565b6000604051905090565b600067ffffffffffffffff8211156112d1576112d061151f565b5b602082029050602081019050919050565b600067ffffffffffffffff8211156112fd576112fc61151f565b5b6113068261154e565b9050602081019050919050565b6000819050602082019050919050565b600081519050919050565b600081519050919050565b6000602082019050919050565b600082825260208201905092915050565b600082825260208201905092915050565b600061137382611406565b915061137e83611406565b925082821015611391576113906114f0565b5b828203905092915050565b60006113a7826113e6565b9050919050565b60008115159050919050565b60007fffffffff0000000000000000000000000000000000000000000000000000000082169050919050565b600073ffffffffffffffffffffffffffffffffffffffff82169050919050565b6000819050919050565b600061141b82611422565b9050919050565b600061142d826113e6565b9050919050565b82818337600083830152505050565b60005b83811015611461578082015181840152602081019050611446565b83811115611470576000848401525b50505050565b61147f8261154e565b810181811067ffffffffffffffff8211171561149e5761149d61151f565b5b80604052505050565b60006114b282611406565b91507fffffffffffffffffffffffffffffffffffffffffffffffffffffffffffffffff8214156114e5576114e46114f0565b5b600182019050919050565b7f4e487b7100000000000000000000000000000000000000000000000000000000600052601160045260246000fd5b7f4e487b7100000000000000000000000000000000000000000000000000000000600052604160045260246000fd5b6000601f19601f8301169050919050565b7f4f6e6c7920746865206f776e65722063616e2063616e63656c20616e2065766560008201527f6e74000000000000000000000000000000000000000000000000000000000000602082015250565b7f496e766974656520646964206e6f7420617070726f7665000000000000000000600082015250565b6115e08161139c565b81146115eb57600080fd5b50565b6115f7816113ae565b811461160257600080fd5b50565b61160e81611406565b811461161957600080fd5b5056fea26469706673582212203dd3555bba92d06d1a3c95bc65aeae96fb661c30bf061cf69d3a7d83a08b696464736f6c63430008040033",
  "linkReferences": {},
  "deployedLinkReferences": {}
}