{
  "_format": "hh-sol-artifact-1",
  "contractName": "CalendarManager",
  "sourceName": "contracts/CalendarManager.sol",
  "abi": [
    {
      "inputs": [
        {
          "internalType": "contract Event",
          "name": "_eventContract",
          "type": "address"
        }
      ],
      "stateMutability": "nonpayable",
      "type": "constructor"
    },
    {
      "anonymous": false,
      "inputs": [
        {
          "indexed": false,
          "internalType": "uint256",
          "name": "eventId",
          "type": "uint256"
        }
      ],
      "name": "EventCancelled",
      "type": "event"
    },
    {
      "anonymous": false,
      "inputs": [
        {
          "indexed": false,
          "internalType": "uint256",
          "name": "eventId",
          "type": "uint256"
        }
      ],
      "name": "EventCreated",
      "type": "event"
    },
    {
      "anonymous": false,
      "inputs": [
        {
          "indexed": true,
          "internalType": "address",
          "name": "by",
          "type": "address"
        },
        {
          "indexed": true,
          "internalType": "address",
          "name": "from",
          "type": "address"
        }
      ],
      "name": "InvitesAllowed",
      "type": "event"
    },
    {
      "anonymous": false,
      "inputs": [
        {
          "indexed": true,
          "internalType": "address",
          "name": "by",
          "type": "address"
        },
        {
          "indexed": true,
          "internalType": "address",
          "name": "from",
          "type": "address"
        }
      ],
      "name": "InvitesDisabled",
      "type": "event"
    },
    {
      "inputs": [
        {
          "internalType": "address",
          "name": "from",
          "type": "address"
        }
      ],
      "name": "allowInvites",
      "outputs": [],
      "stateMutability": "nonpayable",
      "type": "function"
    },
    {
      "inputs": [
        {
          "internalType": "uint256",
          "name": "eventId",
          "type": "uint256"
        }
      ],
      "name": "cancelEvent",
      "outputs": [
        {
          "internalType": "bool",
          "name": "",
          "type": "bool"
        }
      ],
      "stateMutability": "nonpayable",
      "type": "function"
    },
    {
      "inputs": [
        {
          "internalType": "address[]",
          "name": "invitees",
          "type": "address[]"
        },
        {
          "internalType": "uint256",
          "name": "date",
          "type": "uint256"
        },
        {
          "internalType": "string",
          "name": "description",
          "type": "string"
        }
      ],
      "name": "createEvent",
      "outputs": [
        {
          "internalType": "uint256",
          "name": "",
          "type": "uint256"
        }
      ],
      "stateMutability": "nonpayable",
      "type": "function"
    },
    {
      "inputs": [
        {
          "internalType": "address",
          "name": "from",
          "type": "address"
        }
      ],
      "name": "disableInvites",
      "outputs": [],
      "stateMutability": "nonpayable",
      "type": "function"
    },
    {
      "inputs": [],
      "name": "eventContract",
      "outputs": [
        {
          "internalType": "contract Event",
          "name": "",
          "type": "address"
        }
      ],
      "stateMutability": "view",
      "type": "function"
    },
    {
      "inputs": [
        {
          "internalType": "address",
          "name": "from",
          "type": "address"
        }
      ],
      "name": "isInviteAllowed",
      "outputs": [
        {
          "internalType": "bool",
          "name": "",
          "type": "bool"
        }
      ],
      "stateMutability": "view",
      "type": "function"
    },
    {
      "inputs": [
        {
          "internalType": "address",
          "name": "by",
          "type": "address"
        },
        {
          "internalType": "address",
          "name": "from",
          "type": "address"
        }
      ],
      "name": "isInviteAllowedBy",
      "outputs": [
        {
          "internalType": "bool",
          "name": "",
          "type": "bool"
        }
      ],
      "stateMutability": "view",
      "type": "function"
    },
    {
      "inputs": [
        {
          "internalType": "address",
          "name": "",
          "type": "address"
        },
        {
          "internalType": "address",
          "name": "",
          "type": "address"
        },
        {
          "internalType": "uint256",
          "name": "",
          "type": "uint256"
        },
        {
          "internalType": "bytes",
          "name": "",
          "type": "bytes"
        }
      ],
      "name": "onERC721Received",
      "outputs": [
        {
          "internalType": "bytes4",
          "name": "",
          "type": "bytes4"
        }
      ],
      "stateMutability": "pure",
      "type": "function"
    }
  ],
  "bytecode": "0x60806040523480156200001157600080fd5b506040516200161c3803806200161c833981810160405281019062000037919062000095565b806000806101000a81548173ffffffffffffffffffffffffffffffffffffffff021916908373ffffffffffffffffffffffffffffffffffffffff1602179055505062000123565b6000815190506200008f8162000109565b92915050565b600060208284031215620000a857600080fd5b6000620000b8848285016200007e565b91505092915050565b6000620000ce82620000e9565b9050919050565b6000620000e282620000c1565b9050919050565b600073ffffffffffffffffffffffffffffffffffffffff82169050919050565b6200011481620000d5565b81146200012057600080fd5b50565b6114e980620001336000396000f3fe608060405234801561001057600080fd5b50600436106100885760003560e01c8063968e62f31161005b578063968e62f314610139578063bc5a7f9a14610169578063c5fde3b214610185578063e274fd24146101b557610088565b8063150b7a021461008d5780633f69babd146100bd578063510f92c0146100ed5780636dfe218514610109575b600080fd5b6100a760048036038101906100a29190610d1f565b6101d3565b6040516100b49190611044565b60405180910390f35b6100d760048036038101906100d29190610e88565b6101e8565b6040516100e49190611029565b60405180910390f35b61010760048036038101906101029190610cba565b6103bd565b005b610123600480360381019061011e9190610ce3565b610409565b6040516101309190611029565b60405180910390f35b610153600480360381019061014e9190610d9f565b61045b565b60405161016091906110ba565b60405180910390f35b610183600480360381019061017e9190610cba565b6105fd565b005b61019f600480360381019061019a9190610cba565b610649565b6040516101ac9190611029565b60405180910390f35b6101bd61069a565b6040516101ca919061105f565b60405180910390f35b600063150b7a0260e01b905095945050505050565b6000813373ffffffffffffffffffffffffffffffffffffffff1660008054906101000a900473ffffffffffffffffffffffffffffffffffffffff1673ffffffffffffffffffffffffffffffffffffffff16634392bb68836040518263ffffffff1660e01b815260040161025b91906110ba565b60006040518083038186803b15801561027357600080fd5b505afa158015610287573d6000803e3d6000fd5b505050506040513d6000823e3d601f19601f820116820180604052508101906102b09190610e47565b6060015173ffffffffffffffffffffffffffffffffffffffff161461030a576040517f08c379a00000000000000000000000000000000000000000000000000000000081526004016103019061107a565b60405180910390fd5b60008054906101000a900473ffffffffffffffffffffffffffffffffffffffff1673ffffffffffffffffffffffffffffffffffffffff16633f69babd846040518263ffffffff1660e01b815260040161036391906110ba565b602060405180830381600087803b15801561037d57600080fd5b505af1158015610391573d6000803e3d6000fd5b505050506040513d601f19601f820116820180604052508101906103b59190610e1e565b915050919050565b610405600160003373ffffffffffffffffffffffffffffffffffffffff1673ffffffffffffffffffffffffffffffffffffffff168152602001908152602001600020826106be565b5050565b6000610453600160008573ffffffffffffffffffffffffffffffffffffffff1673ffffffffffffffffffffffffffffffffffffffff168152602001908152602001600020836106ee565b905092915050565b6000805b8451811015610542576104f0600160008784815181106104a8577f4e487b7100000000000000000000000000000000000000000000000000000000600052603260045260246000fd5b602002602001015173ffffffffffffffffffffffffffffffffffffffff1673ffffffffffffffffffffffffffffffffffffffff168152602001908152602001600020336106ee565b61052f576040517f08c379a00000000000000000000000000000000000000000000000000000000081526004016105269061109a565b60405180910390fd5b808061053a9061133e565b91505061045f565b5060008054906101000a900473ffffffffffffffffffffffffffffffffffffffff1673ffffffffffffffffffffffffffffffffffffffff16637ac9273b848685336040518563ffffffff1660e01b81526004016105a294939291906110d5565b602060405180830381600087803b1580156105bc57600080fd5b505af11580156105d0573d6000803e3d6000fd5b505050506040513d601f19601f820116820180604052508101906105f49190610eb1565b90509392505050565b610645600160003373ffffffffffffffffffffffffffffffffffffffff1673ffffffffffffffffffffffffffffffffffffffff1681526020019081526020016000208261071e565b5050565b6000610693600160003373ffffffffffffffffffffffffffffffffffffffff1673ffffffffffffffffffffffffffffffffffffffff168152602001908152602001600020836106ee565b9050919050565b60008054906101000a900473ffffffffffffffffffffffffffffffffffffffff1681565b60006106e6836000018373ffffffffffffffffffffffffffffffffffffffff1660001b61074e565b905092915050565b6000610716836000018373ffffffffffffffffffffffffffffffffffffffff1660001b6108d4565b905092915050565b6000610746836000018373ffffffffffffffffffffffffffffffffffffffff1660001b6108f7565b905092915050565b600080836001016000848152602001908152602001600020549050600081146108c857600060018261078091906111ff565b905060006001866000018054905061079891906111ff565b90508181146108535760008660000182815481106107df577f4e487b7100000000000000000000000000000000000000000000000000000000600052603260045260246000fd5b9060005260206000200154905080876000018481548110610829577f4e487b7100000000000000000000000000000000000000000000000000000000600052603260045260246000fd5b90600052602060002001819055508387600101600083815260200190815260200160002081905550505b8560000180548061088d577f4e487b7100000000000000000000000000000000000000000000000000000000600052603160045260246000fd5b6001900381819060005260206000200160009055905585600101600086815260200190815260200160002060009055600193505050506108ce565b60009150505b92915050565b600080836001016000848152602001908152602001600020541415905092915050565b600061090383836108d4565b61095c578260000182908060018154018082558091505060019003906000526020600020016000909190919091505582600001805490508360010160008481526020019081526020016000208190555060019050610961565b600090505b92915050565b600061097a6109758461114d565b611128565b9050808382526020820190508285602086028201111561099957600080fd5b60005b858110156109c957816109af8882610abb565b84526020840193506020830192505060018101905061099c565b5050509392505050565b60006109e66109e18461114d565b611128565b90508083825260208201905082856020860282011115610a0557600080fd5b60005b85811015610a355781610a1b8882610ad0565b845260208401935060208301925050600181019050610a08565b5050509392505050565b6000610a52610a4d84611179565b611128565b905082815260208101848484011115610a6a57600080fd5b610a758482856112cb565b509392505050565b6000610a90610a8b84611179565b611128565b905082815260208101848484011115610aa857600080fd5b610ab38482856112da565b509392505050565b600081359050610aca8161146e565b92915050565b600081519050610adf8161146e565b92915050565b600082601f830112610af657600080fd5b8135610b06848260208601610967565b91505092915050565b600082601f830112610b2057600080fd5b8151610b308482602086016109d3565b91505092915050565b600081519050610b4881611485565b92915050565b60008083601f840112610b6057600080fd5b8235905067ffffffffffffffff811115610b7957600080fd5b602083019150836001820283011115610b9157600080fd5b9250929050565b600082601f830112610ba957600080fd5b8135610bb9848260208601610a3f565b91505092915050565b600082601f830112610bd357600080fd5b8151610be3848260208601610a7d565b91505092915050565b600060808284031215610bfe57600080fd5b610c086080611128565b90506000610c1884828501610ca5565b600083015250602082015167ffffffffffffffff811115610c3857600080fd5b610c4484828501610b0f565b602083015250604082015167ffffffffffffffff811115610c6457600080fd5b610c7084828501610bc2565b6040830152506060610c8484828501610ad0565b60608301525092915050565b600081359050610c9f8161149c565b92915050565b600081519050610cb48161149c565b92915050565b600060208284031215610ccc57600080fd5b6000610cda84828501610abb565b91505092915050565b60008060408385031215610cf657600080fd5b6000610d0485828601610abb565b9250506020610d1585828601610abb565b9150509250929050565b600080600080600060808688031215610d3757600080fd5b6000610d4588828901610abb565b9550506020610d5688828901610abb565b9450506040610d6788828901610c90565b935050606086013567ffffffffffffffff811115610d8457600080fd5b610d9088828901610b4e565b92509250509295509295909350565b600080600060608486031215610db457600080fd5b600084013567ffffffffffffffff811115610dce57600080fd5b610dda86828701610ae5565b9350506020610deb86828701610c90565b925050604084013567ffffffffffffffff811115610e0857600080fd5b610e1486828701610b98565b9150509250925092565b600060208284031215610e3057600080fd5b6000610e3e84828501610b39565b91505092915050565b600060208284031215610e5957600080fd5b600082015167ffffffffffffffff811115610e7357600080fd5b610e7f84828501610bec565b91505092915050565b600060208284031215610e9a57600080fd5b6000610ea884828501610c90565b91505092915050565b600060208284031215610ec357600080fd5b6000610ed184828501610ca5565b91505092915050565b6000610ee68383610ef2565b60208301905092915050565b610efb81611233565b82525050565b610f0a81611233565b82525050565b6000610f1b826111ba565b610f2581856111dd565b9350610f30836111aa565b8060005b83811015610f61578151610f488882610eda565b9750610f53836111d0565b925050600181019050610f34565b5085935050505092915050565b610f7781611245565b82525050565b610f8681611251565b82525050565b610f95816112a7565b82525050565b6000610fa6826111c5565b610fb081856111ee565b9350610fc08185602086016112da565b610fc9816113e5565b840191505092915050565b6000610fe16022836111ee565b9150610fec826113f6565b604082019050919050565b60006110046017836111ee565b915061100f82611445565b602082019050919050565b6110238161129d565b82525050565b600060208201905061103e6000830184610f6e565b92915050565b60006020820190506110596000830184610f7d565b92915050565b60006020820190506110746000830184610f8c565b92915050565b6000602082019050818103600083015261109381610fd4565b9050919050565b600060208201905081810360008301526110b381610ff7565b9050919050565b60006020820190506110cf600083018461101a565b92915050565b60006080820190506110ea600083018761101a565b81810360208301526110fc8186610f10565b905081810360408301526111108185610f9b565b905061111f6060830184610f01565b95945050505050565b6000611132611143565b905061113e828261130d565b919050565b6000604051905090565b600067ffffffffffffffff821115611168576111676113b6565b5b602082029050602081019050919050565b600067ffffffffffffffff821115611194576111936113b6565b5b61119d826113e5565b9050602081019050919050565b6000819050602082019050919050565b600081519050919050565b600081519050919050565b6000602082019050919050565b600082825260208201905092915050565b600082825260208201905092915050565b600061120a8261129d565b91506112158361129d565b92508282101561122857611227611387565b5b828203905092915050565b600061123e8261127d565b9050919050565b60008115159050919050565b60007fffffffff0000000000000000000000000000000000000000000000000000000082169050919050565b600073ffffffffffffffffffffffffffffffffffffffff82169050919050565b6000819050919050565b60006112b2826112b9565b9050919050565b60006112c48261127d565b9050919050565b82818337600083830152505050565b60005b838110156112f85780820151818401526020810190506112dd565b83811115611307576000848401525b50505050565b611316826113e5565b810181811067ffffffffffffffff82111715611335576113346113b6565b5b80604052505050565b60006113498261129d565b91507fffffffffffffffffffffffffffffffffffffffffffffffffffffffffffffffff82141561137c5761137b611387565b5b600182019050919050565b7f4e487b7100000000000000000000000000000000000000000000000000000000600052601160045260246000fd5b7f4e487b7100000000000000000000000000000000000000000000000000000000600052604160045260246000fd5b6000601f19601f8301169050919050565b7f4f6e6c7920746865206f776e65722063616e2063616e63656c20616e2065766560008201527f6e74000000000000000000000000000000000000000000000000000000000000602082015250565b7f496e766974656520646964206e6f7420617070726f7665000000000000000000600082015250565b61147781611233565b811461148257600080fd5b50565b61148e81611245565b811461149957600080fd5b50565b6114a58161129d565b81146114b057600080fd5b5056fea26469706673582212200454d64e0aa4e9c066761397f0e8423fb8d85a6d0453ff080b71a39ebff6c23864736f6c63430008040033",
  "linkReferences": {},
  "deployedLinkReferences": {}
}